{
  "_format": "hh-sol-artifact-1",
  "contractName": "ChallengeDetailV2",
  "sourceName": "contracts/ChallengeDetail/ChallengeDetailV2.sol",
  "abi": [
    {
      "inputs": [
        {
          "internalType": "address payable[]",
          "name": "_stakeHolders",
          "type": "address[]"
        },
        {
          "internalType": "address",
          "name": "_createByToken",
          "type": "address"
        },
        {
          "internalType": "address[]",
          "name": "_erc721Address",
          "type": "address[]"
        },
        {
          "internalType": "uint256[]",
          "name": "_primaryRequired",
          "type": "uint256[]"
        },
        {
          "internalType": "address payable[]",
          "name": "_awardReceivers",
          "type": "address[]"
        },
        {
          "internalType": "uint256",
          "name": "_index",
          "type": "uint256"
        },
        {
          "internalType": "bool[]",
          "name": "_allowGiveUp",
          "type": "bool[]"
        },
        {
          "internalType": "uint256[]",
          "name": "_gasData",
          "type": "uint256[]"
        },
        {
          "internalType": "bool",
          "name": "_allAwardToSponsorWhenGiveUp",
          "type": "bool"
        },
        {
          "internalType": "uint256[]",
          "name": "_awardReceiversPercent",
          "type": "uint256[]"
        },
        {
          "internalType": "uint256",
          "name": "_totalAmount",
          "type": "uint256"
        }
      ],
      "stateMutability": "payable",
      "type": "constructor"
    },
    {
      "anonymous": false,
      "inputs": [
        {
          "indexed": true,
          "internalType": "bool",
          "name": "challengeStatus",
          "type": "bool"
        }
      ],
      "name": "CloseChallenge",
      "type": "event"
    },
    {
      "anonymous": false,
      "inputs": [
        {
          "indexed": true,
          "internalType": "address",
          "name": "to",
          "type": "address"
        },
        {
          "indexed": true,
          "internalType": "uint256",
          "name": "valueSend",
          "type": "uint256"
        }
      ],
      "name": "FundTransfer",
      "type": "event"
    },
    {
      "anonymous": false,
      "inputs": [
        {
          "indexed": true,
          "internalType": "address",
          "name": "from",
          "type": "address"
        }
      ],
      "name": "GiveUp",
      "type": "event"
    },
    {
      "anonymous": false,
      "inputs": [
        {
          "indexed": true,
          "internalType": "uint256",
          "name": "currentStatus",
          "type": "uint256"
        }
      ],
      "name": "SendDailyResult",
      "type": "event"
    },
    {
      "anonymous": false,
      "inputs": [
        {
          "indexed": true,
          "internalType": "uint256",
          "name": "stakeId",
          "type": "uint256"
        },
        {
          "indexed": false,
          "internalType": "uint256",
          "name": "amount",
          "type": "uint256"
        },
        {
          "indexed": false,
          "internalType": "uint256",
          "name": "duration",
          "type": "uint256"
        }
      ],
      "name": "StakingCreated",
      "type": "event"
    },
    {
      "anonymous": false,
      "inputs": [
        {
          "indexed": true,
          "internalType": "uint256",
          "name": "stakeId",
          "type": "uint256"
        }
      ],
      "name": "StakingWithdrawn",
      "type": "event"
    },
    {
      "inputs": [],
      "name": "AAVE_POOL_ADDRESS",
      "outputs": [
        {
          "internalType": "address",
          "name": "",
          "type": "address"
        }
      ],
      "stateMutability": "view",
      "type": "function"
    },
    {
      "inputs": [],
      "name": "WMATIC_WPOC_ADDRESS",
      "outputs": [
        {
          "internalType": "address",
          "name": "",
          "type": "address"
        }
      ],
      "stateMutability": "view",
      "type": "function"
    },
    {
      "inputs": [],
      "name": "aavePool",
      "outputs": [
        {
          "internalType": "contract IAavePool",
          "name": "",
          "type": "address"
        }
      ],
      "stateMutability": "view",
      "type": "function"
    },
    {
      "inputs": [],
      "name": "allContractERC20",
      "outputs": [
        {
          "internalType": "address[]",
          "name": "",
          "type": "address[]"
        }
      ],
      "stateMutability": "view",
      "type": "function"
    },
    {
      "inputs": [
        {
          "internalType": "uint256",
          "name": "",
          "type": "uint256"
        }
      ],
      "name": "allowGiveUp",
      "outputs": [
        {
          "internalType": "bool",
          "name": "",
          "type": "bool"
        }
      ],
      "stateMutability": "view",
      "type": "function"
    },
    {
      "inputs": [],
      "name": "challenger",
      "outputs": [
        {
          "internalType": "address payable",
          "name": "",
          "type": "address"
        }
      ],
      "stateMutability": "view",
      "type": "function"
    },
    {
      "inputs": [
        {
          "internalType": "address[]",
          "name": "_listNFTAddress",
          "type": "address[]"
        },
        {
          "internalType": "uint256[][]",
          "name": "_listIndexNFT",
          "type": "uint256[][]"
        },
        {
          "internalType": "address[][]",
          "name": "_listSenderAddress",
          "type": "address[][]"
        },
        {
          "internalType": "bool[]",
          "name": "_statusTypeNft",
          "type": "bool[]"
        }
      ],
      "name": "closeChallenge",
      "outputs": [],
      "stateMutability": "nonpayable",
      "type": "function"
    },
    {
      "inputs": [],
      "name": "createByToken",
      "outputs": [
        {
          "internalType": "address",
          "name": "",
          "type": "address"
        }
      ],
      "stateMutability": "view",
      "type": "function"
    },
    {
      "inputs": [],
      "name": "currentStatus",
      "outputs": [
        {
          "internalType": "uint256",
          "name": "",
          "type": "uint256"
        }
      ],
      "stateMutability": "view",
      "type": "function"
    },
    {
      "inputs": [],
      "name": "dayRequired",
      "outputs": [
        {
          "internalType": "uint256",
          "name": "",
          "type": "uint256"
        }
      ],
      "stateMutability": "view",
      "type": "function"
    },
    {
      "inputs": [],
      "name": "duration",
      "outputs": [
        {
          "internalType": "uint256",
          "name": "",
          "type": "uint256"
        }
      ],
      "stateMutability": "view",
      "type": "function"
    },
    {
      "inputs": [],
      "name": "endTime",
      "outputs": [
        {
          "internalType": "uint256",
          "name": "",
          "type": "uint256"
        }
      ],
      "stateMutability": "view",
      "type": "function"
    },
    {
      "inputs": [
        {
          "internalType": "uint256",
          "name": "",
          "type": "uint256"
        }
      ],
      "name": "erc721Address",
      "outputs": [
        {
          "internalType": "address",
          "name": "",
          "type": "address"
        }
      ],
      "stateMutability": "view",
      "type": "function"
    },
    {
      "inputs": [
        {
          "internalType": "uint256",
          "name": "_index",
          "type": "uint256"
        },
        {
          "internalType": "bool",
          "name": "_isAddressSuccess",
          "type": "bool"
        }
      ],
      "name": "getAwardReceiversAtIndex",
      "outputs": [
        {
          "internalType": "address",
          "name": "",
          "type": "address"
        }
      ],
      "stateMutability": "view",
      "type": "function"
    },
    {
      "inputs": [],
      "name": "getAwardReceiversPercent",
      "outputs": [
        {
          "internalType": "uint256[]",
          "name": "",
          "type": "uint256[]"
        }
      ],
      "stateMutability": "view",
      "type": "function"
    },
    {
      "inputs": [],
      "name": "getBalanceToken",
      "outputs": [
        {
          "internalType": "uint256[]",
          "name": "",
          "type": "uint256[]"
        }
      ],
      "stateMutability": "view",
      "type": "function"
    },
    {
      "inputs": [],
      "name": "getChallengeHistory",
      "outputs": [
        {
          "internalType": "uint256[]",
          "name": "date",
          "type": "uint256[]"
        },
        {
          "internalType": "uint256[]",
          "name": "data",
          "type": "uint256[]"
        }
      ],
      "stateMutability": "view",
      "type": "function"
    },
    {
      "inputs": [],
      "name": "getChallengeInfo",
      "outputs": [
        {
          "internalType": "uint256",
          "name": "challengeCleared",
          "type": "uint256"
        },
        {
          "internalType": "uint256",
          "name": "challengeDayRequired",
          "type": "uint256"
        },
        {
          "internalType": "uint256",
          "name": "daysRemained",
          "type": "uint256"
        }
      ],
      "stateMutability": "view",
      "type": "function"
    },
    {
      "inputs": [],
      "name": "getContractBalance",
      "outputs": [
        {
          "internalType": "uint256",
          "name": "",
          "type": "uint256"
        }
      ],
      "stateMutability": "view",
      "type": "function"
    },
    {
      "inputs": [],
      "name": "getState",
      "outputs": [
        {
          "internalType": "enum ChallengeDetailV2.ChallengeState",
          "name": "",
          "type": "uint8"
        }
      ],
      "stateMutability": "view",
      "type": "function"
    },
    {
      "inputs": [
        {
          "internalType": "address[]",
          "name": "_listNFTAddress",
          "type": "address[]"
        },
        {
          "internalType": "uint256[][]",
          "name": "_listIndexNFT",
          "type": "uint256[][]"
        },
        {
          "internalType": "address[][]",
          "name": "_listSenderAddress",
          "type": "address[][]"
        },
        {
          "internalType": "bool[]",
          "name": "_statusTypeNft",
          "type": "bool[]"
        }
      ],
      "name": "giveUp",
      "outputs": [],
      "stateMutability": "nonpayable",
      "type": "function"
    },
    {
      "inputs": [],
      "name": "goal",
      "outputs": [
        {
          "internalType": "uint256",
          "name": "",
          "type": "uint256"
        }
      ],
      "stateMutability": "view",
      "type": "function"
    },
    {
      "inputs": [],
      "name": "indexNft",
      "outputs": [
        {
          "internalType": "uint256",
          "name": "",
          "type": "uint256"
        }
      ],
      "stateMutability": "view",
      "type": "function"
    },
    {
      "inputs": [],
      "name": "isFinished",
      "outputs": [
        {
          "internalType": "bool",
          "name": "",
          "type": "bool"
        }
      ],
      "stateMutability": "view",
      "type": "function"
    },
    {
      "inputs": [],
      "name": "isSuccess",
      "outputs": [
        {
          "internalType": "bool",
          "name": "",
          "type": "bool"
        }
      ],
      "stateMutability": "view",
      "type": "function"
    },
    {
      "inputs": [
        {
          "internalType": "address",
          "name": "",
          "type": "address"
        },
        {
          "internalType": "address",
          "name": "",
          "type": "address"
        },
        {
          "internalType": "uint256",
          "name": "",
          "type": "uint256"
        },
        {
          "internalType": "uint256",
          "name": "",
          "type": "uint256"
        },
        {
          "internalType": "bytes",
          "name": "",
          "type": "bytes"
        }
      ],
      "name": "onERC1155Received",
      "outputs": [
        {
          "internalType": "bytes4",
          "name": "",
          "type": "bytes4"
        }
      ],
      "stateMutability": "pure",
      "type": "function"
    },
    {
      "inputs": [
        {
          "internalType": "address",
          "name": "",
          "type": "address"
        },
        {
          "internalType": "address",
          "name": "",
          "type": "address"
        },
        {
          "internalType": "uint256",
          "name": "",
          "type": "uint256"
        },
        {
          "internalType": "bytes",
          "name": "",
          "type": "bytes"
        }
      ],
      "name": "onERC721Received",
      "outputs": [
        {
          "internalType": "bytes4",
          "name": "",
          "type": "bytes4"
        }
      ],
      "stateMutability": "nonpayable",
      "type": "function"
    },
    {
      "inputs": [
        {
          "internalType": "uint256[]",
          "name": "_day",
          "type": "uint256[]"
        },
        {
          "internalType": "uint256[]",
          "name": "_stepIndex",
          "type": "uint256[]"
        },
        {
          "internalType": "address[]",
          "name": "_listGachaAddress",
          "type": "address[]"
        },
        {
          "internalType": "address[]",
          "name": "_listNFTAddress",
          "type": "address[]"
        },
        {
          "internalType": "uint256[][]",
          "name": "_listIndexNFT",
          "type": "uint256[][]"
        },
        {
          "internalType": "address[][]",
          "name": "_listSenderAddress",
          "type": "address[][]"
        },
        {
          "internalType": "bool[]",
          "name": "_statusTypeNft",
          "type": "bool[]"
        },
        {
          "internalType": "uint64[2]",
          "name": "_timeRange",
          "type": "uint64[2]"
        }
      ],
      "name": "sendDailyResult",
      "outputs": [],
      "stateMutability": "nonpayable",
      "type": "function"
    },
    {
      "inputs": [],
      "name": "sponsor",
      "outputs": [
        {
          "internalType": "address payable",
          "name": "",
          "type": "address"
        }
      ],
      "stateMutability": "view",
      "type": "function"
    },
    {
      "inputs": [],
      "name": "stakingStakeId",
      "outputs": [
        {
          "internalType": "uint256",
          "name": "",
          "type": "uint256"
        }
      ],
      "stateMutability": "view",
      "type": "function"
    },
    {
      "inputs": [],
      "name": "stakingToken",
      "outputs": [
        {
          "internalType": "address",
          "name": "",
          "type": "address"
        }
      ],
      "stateMutability": "view",
      "type": "function"
    },
    {
      "inputs": [],
      "name": "startTime",
      "outputs": [
        {
          "internalType": "uint256",
          "name": "",
          "type": "uint256"
        }
      ],
      "stateMutability": "view",
      "type": "function"
    },
    {
      "inputs": [],
      "name": "systemFeePercentForStaking",
      "outputs": [
        {
          "internalType": "uint256",
          "name": "",
          "type": "uint256"
        }
      ],
      "stateMutability": "view",
      "type": "function"
    },
    {
      "inputs": [],
      "name": "totalBalanceBaseToken",
      "outputs": [
        {
          "internalType": "uint256",
          "name": "",
          "type": "uint256"
        }
      ],
      "stateMutability": "view",
      "type": "function"
    },
    {
      "inputs": [],
      "name": "totalReward",
      "outputs": [
        {
          "internalType": "uint256",
          "name": "",
          "type": "uint256"
        }
      ],
      "stateMutability": "view",
      "type": "function"
    },
    {
      "inputs": [
        {
          "internalType": "address[]",
          "name": "_listTokenErc20",
          "type": "address[]"
        },
        {
          "internalType": "address[]",
          "name": "_listNFTAddress",
          "type": "address[]"
        },
        {
          "internalType": "uint256[][]",
          "name": "_listIndexNFT",
          "type": "uint256[][]"
        },
        {
          "internalType": "bool[]",
          "name": "_statusTypeNft",
          "type": "bool[]"
        }
      ],
      "name": "withdrawTokensOnCompletion",
      "outputs": [],
      "stateMutability": "nonpayable",
      "type": "function"
    },
    {
      "stateMutability": "payable",
      "type": "receive"
    }
  ],
  "bytecode": "0x6080806040526000614c38803803809161001982866112c8565b8439820191610160818403126109c55780516001600160401b038111610bae5783610045918301611318565b906100526020820161138b565b60408201516001600160401b0381116112c4578561007191840161139f565b60608301519092906001600160401b0381116112c05786610093918301611404565b60808201519094906001600160401b0381116112bc57876100b5918401611318565b9060a08301519760c084015160018060401b038111610e9b57840181601f82011215610e9b5780516100e681611301565b916100f460405193846112c8565b818352602083016020819360051b8301019185831161129c57602001905b8282106112a45750505060e08601516001600160401b0381116112a0578361013b918801611404565b976101496101008801611461565b6101208801519094906001600160401b03811161129c576101409161016f918a01611404565b970151976107d060285560038451036112575761018b8461146e565b5161121b575b8c156111e6576101a08a611494565b5199898b8103116111d2578c9d899d9c9d519c6101bc8e611301565b6040519e8f916101cc90836112c8565b8082526101d890611301565b601f1901903690602001375b8a51811015610241578c8c6101f9838e6114b1565b51918215910380830283900414171561022b57908e6102248f8f6001958592606492030204926114b1565b52016101e4565b5050634e487b7160e01b8f52601160045260248ffd5b50889c998f9b998f909d999d518c510361119d578e9d8d5b8481106111095750839e8f905b511115610309576102778f8e6114b1565b51156102d3578f9e8f908f8f60019360406102c79361029686856114b1565b51926102a887898060a01b03926114b1565b51168152601c60205220556102c083601754926114b1565b51906114c5565b601755019e8f90610266565b60405162461bcd60e51b815260206004820152600e60248201526d496e76616c69642076616c75653160901b6044820152606490fd5b8f90918e9d9260018060a01b0361031f826114a4565b51600380546001600160a01b031916929091169190911790556001600160a01b036103498261146e565b51600480546001600160a01b031916929091169190911790556001600160a01b039061037490611494565b51600580546001600160a01b0319169290911691909117905587516001600160401b0381116110f5576801000000000000000081116110f5578e600254826002558083106110cd575b506002815260208a0190600080516020614bd8833981519152905b8381106110b057505050508d60048160018060a01b036103f78c6114a4565b51166040519283809263046ff7ab60e31b82525afa9182156110a457809261105f575b50508051906001600160401b03821161104a5768010000000000000000821161104a578f906020906001548460015580851061102f575b506001835201907fb10e2d527612073b26eecdfd717e6a320cf44b4afac2b0732d9fcbe2b7fa0cf6905b83811061101257505050508d6004602060018060a01b0361049b8c6114a4565b51166040519283809263708af3bf60e11b82525afa9081156109ba578291610fd8575b5081546001600160a01b0319166001600160a01b03919091161790556104e3816114a4565b516010556104f08161146e565b516011556104fd81611494565b51601255805160031015610fc4576080810151601455805160041015610fc45760a00151601355601e805460ff191690558051906001600160401b038211610fb057680100000000000000008211610fb057600660208f928254858455808610610f96575b500191528d60208120905b838110610f795750508251929150506001600160401b038211610f6557680100000000000000008211610f65576020908d6007548460075584818110610f49575b505060078f5250017fa66cc928b5edb82af9bd49922954155ab7b0942694bea4ce44661d9a8736c6888d5b838110610f355750508251929150506001600160401b038211610f2157680100000000000000008211610f21576020908c601f5484601f5584818110610f05575b5050601f8e5250017fa03837a25210ee280c2113ff4b77ca23440b19d4866cca721c801278fd08d8078c5b838110610ef157505050506004929161066091600a55611494565b51600d55602480546001600160a01b039283166001600160a01b031982168117909255939091602091610692906114a4565b51166040519384809263104ac95d60e31b82525afa918215610ea7578992610eb2575b506040805163433108e960e01b815292839060049082906001600160a01b03165afa918215610ea75789908a93610e5b575b5060a89290921b60ff60a81b166001600160b01b0319909316179190911760a09190911b60ff60a01b1617602455838503600c558151906001600160401b038211610e4757680100000000000000008211610e475760195482601955808310610df8575b509060198752602087208160051c91885b838110610db35750601f198116900380610d68575b5050505061077e906114a4565b5115159081610d60575b50610d4a575b602580546001600160a01b03191673794a61358d6845594f94dc1db02a252b5b4814ad179055600454600d54906001600160a01b031647821115610c2f575b5050600454600d54604051916001600160a01b03167f97c35397cb6acebd9df368c206404479fc4c80dd6034d1b28943aaf5826318708680a381830361081d575b60405161350890816116d08239f35b6024546001600160a01b031680610a6857505090918183033410610a1557600080516020614c188339815191523b156109b757604051630d0e30db60e41b81528181600481868803600080516020614c188339815191525af180156109ba57908291610a00575b506001600160a01b0390506108a6600080516020614c1883398151915261150d565b1660018060a01b0319602754161760275560405163095ea7b360e01b815273794a61358d6845594f94dc1db02a252b5b4814ad6004820152828403602482015260208160448185600080516020614c188339815191525af180156109ba576109c9575b506025546001600160a01b0316803b156109c55781809160846040518094819363617ba03760e01b8352600080516020614c188339815191526004840152888a0360248401523060448401528160648401525af180156109ba576109a2575b50506040600192600080516020614bf88339815191529284602655601054908351920382526020820152a260016026555b8080808061080e565b6109ad8280926112c8565b6109b75780610968565b80fd5b6040513d84823e3d90fd5b5080fd5b6020813d6020116109f8575b816109e2602093836112c8565b810103126109c5576109f390611461565b610909565b3d91506109d5565b81610a0a916112c8565b6109b7578084610884565b60405162461bcd60e51b815260206004820152602560248201527f496e73756666696369656e74204d4154494320666f72206e6174697665207374604482015264616b696e6760d81b6064820152608490fd5b81606481876020946323b872dd60e01b835233600484015230602484015287890360448401525af18015610ba357610bf4575b5060245483906001600160a01b0390811690610ab68261150d565b1660018060a01b0319602754161760275560405163095ea7b360e01b815273794a61358d6845594f94dc1db02a252b5b4814ad6004820152838503602482015260208160448186865af18015610be957610bb2575b506025546001600160a01b0316803b15610bae5760848392604051948593849263617ba03760e01b8452600484015287890360248401523060448401528160648401525af18015610ba35791600194600080516020614bf88339815191529492604094610b93575b505084602655601054908351920382526020820152a26001602655610999565b81610b9d916112c8565b86610b73565b6040513d86823e3d90fd5b8280fd5b6020813d602011610be1575b81610bcb602093836112c8565b81010312610bae57610bdc90611461565b610b0b565b3d9150610bbe565b6040513d85823e3d90fd5b6020813d602011610c27575b81610c0d602093836112c8565b81010312610c2357610c1e90611461565b610a9b565b8380fd5b3d9150610c00565b814710610d05578480809381935af13d15610d00573d6001600160401b038111610cec5760405190610c6b601f8201601f1916602001836112c8565b81528460203d92013e5b15610c815783806107cd565b60405162461bcd60e51b815260206004820152603a60248201527f416464726573733a20756e61626c6520746f2073656e642076616c75652c207260448201527f6563697069656e74206d617920686176652072657665727465640000000000006064820152608490fd5b634e487b7160e01b85526041600452602485fd5b610c75565b60405162461bcd60e51b815260206004820152601d60248201527f416464726573733a20696e73756666696369656e742062616c616e63650000006044820152606490fd5b6201000062ff000019601a541617601a5561078e565b905084610788565b928893895b818110610d8457505050015561077e868080610771565b9091946020610da96001928489511515919060ff809160031b9316831b921b19161790565b9601929101610d6d565b898a5b60208110610dcb57508382015560010161075c565b95906020610def6001928985511515919060ff809160031b9316831b921b19161790565b92019601610db6565b610e24906019895260208920601f80860160051c82019281871680610e2a575b500160051c01906114e8565b8761074b565b6000198501908154906000199060200360031b1c1690558c610e18565b634e487b7160e01b87526041600452602487fd5b9250506040823d604011610e9f575b81610e77604093836112c8565b81010312610e9b57610e946020610e8d846114ff565b93016114ff565b918a6106e7565b8880fd5b3d9150610e6a565b6040513d8b823e3d90fd5b91506020823d602011610ee9575b81610ecd602093836112c8565b81010312610e9b576040610ee260049361138b565b92506106b5565b3d9150610ec0565b600190602084519401938184015501610645565b8483601f610f1995522091820191016114e8565b8c8e8461061a565b634e487b7160e01b8c52604160045260248cfd5b6001906020845194019381840155016105d9565b84836007610f5d95522091820191016114e8565b8d8f846105ae565b634e487b7160e01b8d52604160045260248dfd5b82516001600160a01b03168183015560209092019160010161056d565b838552828520610faa9181019087016114e8565b38610562565b634e487b7160e01b8e52604160045260248efd5b634e487b7160e01b8e52603260045260248efd5b90506020813d60201161100a575b81610ff3602093836112c8565b810103126109c5576110049061138b565b386104be565b3d9150610fe6565b82516001600160a01b03168183015560209092019160010161047b565b600184528284206110449181019086016114e8565b38610451565b50634e487b7160e01b8f52604160045260248ffd5b9091503d8091833e61107181836112c8565b81016020828203126110a05781516001600160401b03811161109e57611097920161139f565b8f8f61041a565b505b8f80fd5b604051903d90823e3d90fd5b82516001600160a01b0316818301556020909201916001016103d8565b600282526110ef90600080516020614bd88339815191529081019084016114e8565b386103bd565b634e487b7160e01b8f52604160045260248ffd5b9e506111158f8e6114b1565b5115611167578f9e8f908f8f600193604061115e9361113486856114b1565b519261114687898060a01b03926114b1565b51168152601b60205220556102c083601654926114b1565b60165501610259565b60405162461bcd60e51b815260206004820152600e60248201526d0496e76616c69642076616c7565360941b6044820152606490fd5b60405162461bcd60e51b815260206004820152600d60248201526c496e76616c6964206c6973747360981b6044820152606490fd5b634e487b7160e01b8d52601160045260248dfd5b60405162461bcd60e51b815260206004820152600d60248201526c496e76616c69642076616c756560981b6044820152606490fd5b3489146101915760405162461bcd60e51b815260206004820152600d60248201526c125b9d985b1a5908185dd85c99609a1b6044820152606490fd5b60405162461bcd60e51b815260206004820152601560248201527f496e76616c696420616c6c6f77206769766520757000000000000000000000006044820152606490fd5b8c80fd5b8a80fd5b602080916112b184611461565b815201910190610112565b8680fd5b8580fd5b8480fd5b601f909101601f19168101906001600160401b038211908210176112eb57604052565b634e487b7160e01b600052604160045260246000fd5b6001600160401b0381116112eb5760051b60200190565b9080601f830112156113865781519061133082611301565b9261133e60405194856112c8565b82845260208085019360051b82010191821161138657602001915b8183106113665750505090565b82516001600160a01b038116810361138657815260209283019201611359565b600080fd5b51906001600160a01b038216820361138657565b9080601f830112156113865781516113b681611301565b926113c460405194856112c8565b81845260208085019260051b82010192831161138657602001905b8282106113ec5750505090565b602080916113f98461138b565b8152019101906113df565b9080601f8301121561138657815161141b81611301565b9261142960405194856112c8565b81845260208085019260051b82010192831161138657602001905b8282106114515750505090565b8151815260209182019101611444565b5190811515820361138657565b80516001101561147e5760400190565b634e487b7160e01b600052603260045260246000fd5b80516002101561147e5760600190565b80511561147e5760200190565b805182101561147e5760209160051b010190565b919082018092116114d257565b634e487b7160e01b600052601160045260246000fd5b8181106114f3575050565b600081556001016114e8565b519060ff8216820361138657565b6001600160a01b0316600080516020614c1883398151915281146116b65773c2132d05d31c914a87c6611c10748aeb04b58e8f811461169d57732791bca1f2de4661ed88a30c99a7a9449aa84174811461168457738f3cf7ad23cd3cadbd9735aff958023239c6a063811461166b57737ceb23fd6bc0add59e62ac25578270cff1b9f619811461165257731bfd67037b42cf73acf2047067bd4f2c47d9bfd681146116395773d6df932a45c0f255f85145f286ea0b292b21c90b146116215760405162461bcd60e51b815260206004820152602760248201527f61546f6b656e2061646472657373206e6f7420666f756e6420666f722074686960448201526639903a37b5b2b760c91b6064820152608490fd5b73f329e36c7bf6e5e86ce2150875a84ce77f47737590565b50735c2ed810328349100a66b82b78a1791b101c9d6190565b5073e50fa9b3c56ffb159cb0fca61f5c9d750e8128c890565b507382e64f49ed5ec1bc6e43dad4fc8af9bb3a2312ee90565b5073625e7708f30ca75bfd92583e0c60ccde3c2839a690565b50736ab707aca953edaefbc4fd23ba7329424149062090565b50736d80113e533a2c0fe82eabd35f1875dcea89ea979056fe60806040526004361015610031575b361561001957600080fd5b60ff601a541661002557005b61002f3433612f7d565b005b60003560e01c80630781b0b014611bfe5780630860163c14611b4e5780630b6c754b14611b285780630bd2d06514611b0a5780630fb5a6b414611aec5780631425d2fa14611a9257806314f1157214611a5c578063150b7a0214611a075780631865c57d146119c75780632a4e950b146119a95780632df36906146119805780633197cbb614611962578063401938831461194457806340e9ad6014611740578063534db0e214611717578063542b0c9c146116da5780635466e24d146116ab5780636452c9121461165c5780636e398f7b146116335780636f9fb98a1461161757806372f702f3146115ee578063750142e6146115d057806377c93662146115a7578063786877431461148a57806378e979251461146c5780637b3529621461144957806381de5acb1461142b578063993b326e1461099b578063a03e4bc314610972578063b1f516ae14610954578063b79e25d114610395578063dddc9ede14610377578063e08346df146102ac578063ef8a92351461028e578063f23a6e61146102395763fa6666a20361000e573461023457600036600319011261023457604051601f548082526020820190601f60005260206000209060005b81811061021e5761021a8561020681870382611d8b565b604051918291602083526020830190611d2b565b0390f35b82548452602090930192600192830192016101ef565b600080fd5b346102345760a036600319011261023457610252611d5f565b5061025b611d75565b506084356001600160401b0381116102345761027b903690600401611dc9565b5060405163f23a6e6160e01b8152602090f35b34610234576000366003190112610234576020601554604051908152f35b34610234576000366003190112610234576040516009548082528160208101600960005260206000209260005b81811061035e5750506102ee92500382611d8b565b604051906008548083526020830190600860005260206000209060005b8181106103485761033a8561021a8861032681890382611d8b565b604051938493604085526040850190611d2b565b908382036020850152611d2b565b825484526020909301926001928301920161030b565b84548352600194850194869450602090930192016102d9565b34610234576000366003190112610234576020600b54604051908152f35b34610234576103a336612055565b926000929192601954156109405760199052600080516020613493833981519152546000949060ff161561090957601a5460ff8160181c166108c75760ff610408916103f36011544210156121e9565b6104016012544211156121a4565b16156121a4565b6004546001600160a01b0316331480156108b3575b61042690612147565b61042e612690565b60ff60245460a81c169384606403936064851161089f576064610451864761224d565b049360ff601a5460101c166000146105cb5760035494969461047d9088906001600160a01b0316612f7d565b879460641415945b60015481101561051c5780866104b561049f600194611cc2565b903091868060a01b0391549060031b1c16613061565b81610512575b506104c7575b01610485565b61050d6104d382611cc2565b848060a01b0391549060031b1c16838060a01b036003541660646105068c6104fa87611cdd565b90549060031b1c61224d565b04916122cb565b6104c1565b905015158b6104bb565b509193509193506105499460018060a01b03600354166000805160206134738339815191528880a36130cd565b600554600f54610561916001600160a01b0316612f7d565b600554600f54906001600160a01b03166000805160206134738339815191528380a3630100000163ff0000ff19601a541617601a55600360ff19601e541617601e55337f7d0809ad7f5cf504263fbf4e67eb6f84a6459ab4f22e67df29b6e110bbf8b4b68280a280f35b9093929195506105e96105e06015548561224d565b60135490612260565b60035490929061060c906001600160a01b031661060685876120e0565b90612f7d565b875b6001548110156106f6576064610627886104fa84611cdd565b0461064a61063483611cc2565b9054309160031b1c6001600160a01b0316613061565b610658575b5060010161060e565b61069c61067461066d6105e06015548561224d565b80936120e0565b61067d84611cc2565b9054600380546001600160a01b039081169390911b9190911c166122cb565b602254600160401b8110156106e257600192916106c382856106dc94016022556022611d13565b90919082549060031b91821b91600019901b1916179055565b9061064f565b634e487b7160e01b8b52604160045260248bfd5b509495929190928795831515915b89600a5489101561088c578885878661082d575b5050505b6001548110156108215761073261063482611cc2565b61073f575b60010161071c565b61074881611cc2565b60018060a01b0391549060031b1c168b526020805261076a8960408d20611d13565b90549060031b1c60225482101561080d5760228c527f61035b26e3e9eee00e0d72fd1ee8ddca6894550dca6916ea2ac6baa90d11e51082015460019291610806916107d2918e916064916107cb916107c19161224d565b926104fa87611cdd565b0490612260565b6107db83611cc2565b858060a01b0391549060031b1c166107f28d611ca7565b868060a01b0391549060031b1c16906122cb565b9050610737565b634e487b7160e01b8c52603260045260248cfd5b50600190970196610704565b61087e6106069260406108839661085e61084688611ca7565b905460039190911b1c6001600160a01b031697611ca7565b905460039190911b1c6001600160a01b03168152601b602052205461224d565b612260565b89888587610718565b50959493509550505061054994506130cd565b634e487b7160e01b87526011600452602487fd5b506003546001600160a01b0316331461041d565b60405162461bcd60e51b815260206004820152601a602482015279054686973206368616c6c656e67652077617320676976652075760341b6044820152606490fd5b60405162461bcd60e51b815260206004820152600f60248201526e043616e206e6f74206769766520757608c1b6044820152606490fd5b634e487b7160e01b81526032600452602490fd5b34610234576000366003190112610234576020602854604051908152f35b34610234576000366003190112610234576025546040516001600160a01b039091168152602090f35b3461023457610120366003190112610234576004356001600160401b038111610234576109cc903690600401611e95565b6024356001600160401b038111610234576109eb903690600401611e95565b906044356001600160401b03811161023457610a0b903690600401611e27565b916064356001600160401b03811161023457610a2b903690600401611e27565b906084356001600160401b03811161023457610a4b903690600401611ef2565b60a4356001600160401b03811161023457610a6a903690600401611fd7565b60c4356001600160401b03811161023457610a89903690600401611f70565b903661010312156102345760408051959086016001600160401b038111878210176113a1576040528536610124116102345760e4905b610124821061140b575050610ad960ff601a5416156121a4565b610ae76011544210156121e9565b6004546001600160a01b031633036113b757865195600096600090600c549260005b828110611128575060009a6008549a6014549b60001981019081119d8e5b6110d55781811015610b61578d610b3d82611c8c565b90549060031b1c10610b53575b6001018e610b27565b600c54975060009650610b4a565b50508d9b5080611121575b1561110d57610b7d83601854612101565b60001981019081116110d5576018555b600019830192831192836110d557610ba5818c6120ed565b516014541193846110eb575b846110a9575b505050506110a1575b60185490610bd160155480936120e0565b9260105493610be360135480966120e0565b109182611098575b508161108c575b5015610cdf57505092610c1193600260ff19601e541617601e5561257a565b60005b8251811015610cb5576001600160a01b03610c2f82856120ed565b5116906020604051809363030a07d160e11b82523060048301526040602483015281600081610c61604482018a611d2b565b03925af1918215610ca957600192610c7b575b5001610c14565b610c9b9060203d8111610ca2575b610c938183611d8b565b810190612235565b5084610c74565b503d610c89565b6040513d6000823e3d90fd5b6015547ffdf48e505ae72081bb7ad5b92b649ee333b0ca8f6aecc6d6fbfa5527a8e06711600080a2005b909192501015610cf2575b505050610c11565b93600160ff19601e541617601e55610d08612690565b600554600e54610d20916001600160a01b0316612f7d565b600554600e54906001600160a01b0316600080516020613473833981519152600080a36000935b600a54851015610e5357610d9b610d5d86611ca7565b905460039190911b1c6001600160a01b0316610d7887611ca7565b60018060a01b0391549060031b1c16600052601b60205260406000205490612f7d565b60005b600154811015610e475780610dcd610db7600193611cc2565b903091858060a01b0391549060031b1c16613061565b610dd8575b01610d9e565b610e42610de482611cc2565b848060a01b0391549060031b1c16610dfb89611ca7565b858060a01b0391549060031b1c16610e1284611cc2565b868060a01b0391549060031b1c1660005260208052610e358a6040600020611d13565b90549060031b1c916122cb565b610dd2565b50600190940193610d47565b92949190935060006019546002101561094057601990526000805160206134938339815191525460101c60ff16610eb3575b610e9c92939460018060a01b0360045416926123bc565b61010161ffff19601a541617601a55828080610cea565b60006002541561094057600290527f405787fa12a823e0f2b7631cc41b3ba8828b3321ca811111fa75cd3aa3bb5ace54601454601054601354602454600c54601f5460009b969395936001600160a01b03908116931691901561080d57601f8c527fa03837a25210ee280c2113ff4b77ca23440b19d4866cca721c801278fd08d8075460065415611078579260409594928d9261010495600685526020852060018060a01b039054169160018060a01b0360045416938a519b8c9a8b9963f7302b8160e01b8b5260048b015260248a015260448901526064880152608487015260a486015260c485015260e48401525af1801561106d578791889161101c575b50600b5560025496600160401b8810156110085750610fdd876001610e9c97989901600255611c40565b81546001600160a01b0393841660039290921b91821b9390911b191691909117905594939250610e85565b634e487b7160e01b81526041600452602490fd5b9150506040813d604011611065575b8161103860409383611d8b565b81010312611061578051906001600160a01b038216820361105d576020015188610fb3565b8780fd5b8680fd5b3d915061102b565b6040513d89823e3d90fd5b634e487b7160e01b8d52603260045260248dfd5b9050600c541489610bf2565b1591508a610beb565b506001610bc0565b90919293506110d5576110bb916120ed565b516020909101516001600160401b03161189808080610bb7565b634e487b7160e01b600052601160045260246000fd5b50600093506110fa81836120ed565b5183516001600160401b03161093610bb1565b61111983601854612101565b601855610b8d565b5083610b6c565b97929a999460009c94969197929c955b6009548710156112995761114b87611c71565b90549060031b1c60018060401b038a5116111580611274575b15611222575061117386611c8c565b90549060031b1c60145411156111cb576001956000198e01908e82116110d5576111c46111ba838f8f6111ab6001976111b5926120ed565b516106c387611c8c565b6120ed565b516106c383611c71565b0195611138565b60405162461bcd60e51b815260206004820152602960248201527f496e76616c696420737465703a206578636565647320676f616c206f72206e6f6044820152683a1033b932b0ba32b960b91b6064820152608490fd5b958a8c61123f8c61123285611c71565b90549060031b1c926120ed565b511461124f575b506001906111c4565b975060019061126c6112628c809b6120ed565b516106c383611c8c565b90508a611246565b5061127e87611c71565b90549060031b1c60018060401b0360208b0151161015611164565b9a9b93989095509b91969095939b8a156112f8575b6112b8818b6120ed565b516014541115806112eb575b6112d1575b600101610b09565b60155490600182018092116110d5576015919091556112c9565b50601554601354116112c4565b8b8a8280880361132b575b61131081611317936120ed565b51926120ed565b51600052601d6020526040600020556112ae565b9050611336916120ed565b5160095490600160401b8210156113a1576106c382600161135c94016009556009611d13565b611366818b6120ed565b5160085490600160401b8210156113a157826113108f938e611398611317956106c38460018896016008556008611d13565b93505050611303565b634e487b7160e01b600052604160045260246000fd5b60405162461bcd60e51b815260206004820152602660248201527f4f6e6c79206368616c6c656e6765722063616e2063616c6c20746869732066756044820152653731ba34b7b760d11b6064820152608490fd5b81356001600160401b038116810361023457815260209182019101610abf565b34610234576000366003190112610234576020601354604051908152f35b3461023457600036600319011261023457602060ff601a54166040519015158152f35b34610234576000366003190112610234576020601154604051908152f35b346102345761149836612055565b9160018060a01b036004541633148015611593575b6114b690612147565b6012546202a30081018091116110d55742111561154e57601a5460ff8160081c16159081611542575b5015611511576114ee9361257a565b600460ff19601e541617601e5560006000805160206134538339815191528180a2005b60405162461bcd60e51b815260206004820152600960248201526810d85b9d0818d85b1b60ba1b6044820152606490fd5b60ff91501615856114df565b60405162461bcd60e51b815260206004820152601e60248201527f4368616c6c656e676520686173206e6f742066696e69736865642079657400006044820152606490fd5b506003546001600160a01b031633146114ad565b34610234576000366003190112610234576003546040516001600160a01b039091168152602090f35b34610234576000366003190112610234576020600c54604051908152f35b34610234576000366003190112610234576027546040516001600160a01b039091168152602090f35b3461023457600036600319011261023457602047604051908152f35b34610234576000366003190112610234576024546040516001600160a01b039091168152602090f35b34610234576020366003190112610234576004356019548110156102345760006019548210156109405760209160f88383601960ff9552208260051c01549160031b161c166040519015158152f35b3461023457600036600319011261023457602060405173794a61358d6845594f94dc1db02a252b5b4814ad8152f35b346102345760403660031901126102345760243580151581036102345761170560209160043561210e565b6040516001600160a01b039091168152f35b34610234576000366003190112610234576004546040516001600160a01b039091168152602090f35b34610234576080366003190112610234576004356001600160401b03811161023457611770903690600401611e27565b6024356001600160401b0381116102345761178f903690600401611e27565b906044356001600160401b038111610234576117af903690600401611ef2565b916064356001600160401b038111610234576117cf903690600401611f70565b60ff601a5416156118ef576000546001600160a01b031633036118ab5760005b8351811015611893576001600160a01b0361180a82866120ed565b516040516370a0823160e01b81523060048201529116602082602481845afa918215610ca95760009261185b575b50600054600193926118559290916001600160a01b0316906122cb565b016117ef565b90916020823d821161188b575b8161187560209383611d8b565b8101031261188857505190611855611838565b80fd5b3d9150611868565b60005461002f906001600160a01b03168387866123bc565b606460405162461bcd60e51b815260206004820152602060248201527f4f6e6c792072657475726e6564206e66742077616c6c657420616464726573736044820152fd5b60405162461bcd60e51b815260206004820152602760248201527f546865206368616c6c656e676520686173206e6f7420796574206265656e20666044820152661a5b9a5cda195960ca1b6064820152608490fd5b34610234576000366003190112610234576020601454604051908152f35b34610234576000366003190112610234576020601254604051908152f35b346102345760003660031901126102345760206040516000805160206134b38339815191528152f35b34610234576000366003190112610234576020602354604051908152f35b346102345760003660031901126102345760ff601e541660405160058210156119f1576020918152f35b634e487b7160e01b600052602160045260246000fd5b3461023457608036600319011261023457611a20611d5f565b50611a29611d75565b506064356001600160401b03811161023457611a49903690600401611dc9565b50604051630a85bd0160e11b8152602090f35b34610234576000366003190112610234576060601554601354611a7f82826120e0565b9060405192835260208301526040820152f35b34610234576000366003190112610234576040516021548082526020820190602160005260206000209060005b818110611ad65761021a8561020681870382611d8b565b8254845260209093019260019283019201611abf565b34610234576000366003190112610234576020601054604051908152f35b34610234576000366003190112610234576020602654604051908152f35b3461023457600036600319011261023457602060ff601a5460081c166040519015158152f35b346102345760003660031901126102345760405180602060015492838152018092600160005260206000209060005b818110611bdf5750505081611b93910382611d8b565b6040519182916020830190602084525180915260408301919060005b818110611bbd575050500390f35b82516001600160a01b0316845285945060209384019390920191600101611baf565b82546001600160a01b0316845260209093019260019283019201611b7d565b346102345760203660031901126102345760043560025481101561023457611c27602091611c40565b905460405160039290921b1c6001600160a01b03168152f35b600254811015611c5b57600260005260206000200190600090565b634e487b7160e01b600052603260045260246000fd5b600954811015611c5b57600960005260206000200190600090565b600854811015611c5b57600860005260206000200190600090565b600654811015611c5b57600660005260206000200190600090565b600154811015611c5b57600160005260206000200190600090565b602154811015611c5b57602160005260206000200190600090565b601f54811015611c5b57601f60005260206000200190600090565b8054821015611c5b5760005260206000200190600090565b906020808351928381520192019060005b818110611d495750505090565b8251845260209384019390920191600101611d3c565b600435906001600160a01b038216820361023457565b602435906001600160a01b038216820361023457565b601f909101601f19168101906001600160401b038211908210176113a157604052565b6001600160401b0381116113a157601f01601f191660200190565b81601f8201121561023457803590611de082611dae565b92611dee6040519485611d8b565b8284526020838301011161023457816000926020809301838601378301015290565b6001600160401b0381116113a15760051b60200190565b9080601f8301121561023457813590611e3f82611e10565b92611e4d6040519485611d8b565b82845260208085019360051b82010191821161023457602001915b818310611e755750505090565b82356001600160a01b038116810361023457815260209283019201611e68565b9080601f83011215610234578135611eac81611e10565b92611eba6040519485611d8b565b81845260208085019260051b82010192831161023457602001905b828210611ee25750505090565b8135815260209182019101611ed5565b9080601f83011215610234578135611f0981611e10565b92611f176040519485611d8b565b81845260208085019260051b820101918383116102345760208201905b838210611f4357505050505090565b81356001600160401b03811161023457602091611f6587848094880101611e95565b815201910190611f34565b9080601f8301121561023457813590611f8882611e10565b92611f966040519485611d8b565b82845260208085019360051b82010191821161023457602001915b818310611fbe5750505090565b8235801515810361023457815260209283019201611fb1565b9080601f83011215610234578135611fee81611e10565b92611ffc6040519485611d8b565b81845260208085019260051b820101918383116102345760208201905b83821061202857505050505090565b81356001600160401b0381116102345760209161204a87848094880101611e27565b815201910190612019565b906080600319830112610234576004356001600160401b038111610234578261208091600401611e27565b916024356001600160401b038111610234578161209f91600401611ef2565b916044356001600160401b03811161023457826120be91600401611fd7565b91606435906001600160401b038211610234576120dd91600401611f70565b90565b919082039182116110d557565b8051821015611c5b5760209160051b010190565b919082018092116110d557565b90156121325761211d90611ca7565b905460039190911b1c6001600160a01b031690565b61214261211d91600a5490612101565b611ca7565b1561214e57565b60405162461bcd60e51b815260206004820152602860248201527f4f6e6c79207374616b65686f6c646572732063616e2063616c6c207468697320604482015267333ab731ba34b7b760c11b6064820152608490fd5b156121ab57565b60405162461bcd60e51b815260206004820152601660248201527510da185b1b195b99d9481dd85cc8199a5b9a5cda195960521b6044820152606490fd5b156121f057565b60405162461bcd60e51b815260206004820152601d60248201527f4368616c6c656e676520686173206e6f742073746172746564207965740000006044820152606490fd5b90816020910312610234575180151581036102345790565b818102929181159184041417156110d557565b811561226a570490565b634e487b7160e01b600052601260045260246000fd5b6001600160a01b039091168152602081019190915260400190565b3d156122c6573d906122ac82611dae565b916122ba6040519384611d8b565b82523d6000602084013e565b606090565b60009291836122f66123048295604051928391602083019663a9059cbb60e01b885260248401612280565b03601f198101835282611d8b565b51925af161231061229b565b81612363575b501561231e57565b60405162461bcd60e51b815260206004820152601f60248201527f5472616e7366657248656c7065723a205452414e534645525f4641494c4544006044820152606490fd5b8051801592508215612378575b505038612316565b61238b9250602080918301019101612235565b3880612370565b6001600160a01b039182168152911660208201526040810191909152606081019190915260800190565b9193926000935b8351851015612572576123d685876120ed565b51156124455760005b6123e986856120ed565b51518110156124305760019061242a6001600160a01b0361240a89896120ed565b5116856124218461241b8c8b6120ed565b516120ed565b5191309061336d565b016123df565b5094909192936001905b0193929190946123c3565b60009591929394955b61245887866120ed565b5151811015612568576124a69060206001600160a01b036124798a8a6120ed565b51166124898361241b8c8b6120ed565b51906040518080968194627eeac760e11b83523060048401612280565b03915afa8015610ca957858989899560009461252b575b5094839261251c8661241b8560019a6125046124e18561241b6125259d9b8b6120ed565b516124f66040519b8c928a3060208601612392565b03601f1981018b528a611d8b565b612514828d8060a01b03926120ed565b5116956120ed565b5191309061322f565b0161244e565b9495505050506020823d8211612560575b8161254960209383611d8b565b8101031261188857505185919085898960016124bd565b3d915061253c565b509460019061243a565b945050505050565b90939192612586612690565b600554600f5461259e916001600160a01b0316612f7d565b600554600f54906001600160a01b0316600080516020613473833981519152600080a3600a54935b60065485101561265e5761261a6125dc86611ca7565b905460039190911b1c6001600160a01b03166125f787611ca7565b60018060a01b0391549060031b1c16600052601c60205260406000205490612f7d565b60005b6001548110156126525780612636610db7600193611cc2565b612641575b0161261d565b61264d610de482611cc2565b61263b565b506001909401936125c6565b9161266d9450949092946130cd565b60006000805160206134538339815191528180a2600160ff19601a541617601a55565b60265460009080151580612f69575b612a46575b7fcf64c980a80b2cf6b9a2739bb7f0e656fa972de61b3115c3c671bf7f06e6b13f8280a24780612937575b5047602355805b60015481101561293357602460206126ed83611cc2565b90546040516370a0823160e01b81523060048201529384929091839160031b1c6001600160a01b03165afa9081156129285783916128f5575b50602154600160401b8110156128e157906106c382600161274c94016021556021611d13565b61275861063482611cc2565b612765575b6001016126d6565b91815b601f548110156128795761277b81611cf8565b90549060031b1c6024602061278f87611cc2565b90546040516370a0823160e01b81523060048201529384929091839160031b1c6001600160a01b03165afa90811561286e57859161283a575b506127d59060649261224d565b046127df85611cc2565b905460039190911b1c6001600160a01b031684526020805260408420805490600160401b82101561282657916106c382600195948661282095018155611d13565b01612768565b634e487b7160e01b86526041600452602486fd5b905060203d8111612867575b6128508183611d8b565b6020826000928101031261188857505160646127c8565b503d612846565b6040513d87823e3d90fd5b509160019060646128a161288c83611cdd565b905460245460a81c60ff169160031b1c61224d565b04806128b0575b50905061275d565b6128db906128bd83611cc2565b858060a01b0391549060031b1c16848060a01b0360055416906122cb565b386128a8565b634e487b7160e01b84526041600452602484fd5b905060203d8111612921575b61290b8183611d8b565b6020826000928101031261188857505138612726565b503d612901565b6040513d85823e3d90fd5b5050565b9190606461296160ff60245483612953838360a01c168961224d565b04600e5560a81c168561224d565b04600f558060165580601755805b6006548110156129d35780606461298b866104fa600195611cf8565b0461299582611ca7565b848060a01b0391549060031b1c168452601b60205260408420556129ca60646129c1876104fa85611cf8565b04601654612101565b6016550161296f565b50600a545b600654811015612a3c578060646129f4866104fa600195611cf8565b046129fe82611ca7565b848060a01b0391549060031b1c168452601c6020526040842055612a336064612a2a876104fa85611cf8565b04601754612101565b601755016129d8565b50909150386126cf565b60245482906001600160a01b031680612f6457506000805160206134b38339815191525b602554604051631a4ca37b60e21b81526001600160a01b039283166004820181905260001960248301523060448301529093909260209285926064928492165af1918215612c68578492612f30575b50600c548083118015612f2957612ad082856120e0565b905b8694829383151593848095612f1e575b612ef9575b506024546001600160a01b0316612dad57505050909150600c546000805160206134b38339815191523b15612da95760405190632e1a7d4d60e01b825260048201528581602481836000805160206134b38339815191525af18015612d9e57612d8a575b508480808060018060a01b0360045416600c54905af1612b6961229b565b5015612d4557612c73575b5080612b97575b505b6026829055602780546001600160a01b03191690556126a4565b6000805160206134b38339815191523b15612c6457604051632e1a7d4d60e01b8152600481018290528381602481836000805160206134b38339815191525af18015612c6857908491612c4f575b508080809360018060a01b03600554165af1612bff61229b565b5015612c0b5738612b7b565b606460405162461bcd60e51b815260206004820152602060248201527f53797374656d20666565204d41544943207472616e73666572206661696c65646044820152fd5b81612c5991611d8b565b612c64578238612be5565b8280fd5b6040513d86823e3d90fd5b6000805160206134b38339815191523b15612d4157604051632e1a7d4d60e01b8152600481018290528481602481836000805160206134b38339815191525af1801561286e57908591612d2c575b508080809360018060a01b03600454165af1612cdb61229b565b5015612ce75738612b74565b60405162461bcd60e51b815260206004820152601d60248201527f52657761726473204d41544943207472616e73666572206661696c65640000006044820152606490fd5b81612d3691611d8b565b612d41578338612cc1565b8380fd5b60405162461bcd60e51b815260206004820152601f60248201527f5072696e636970616c204d41544943207472616e73666572206661696c6564006044820152606490fd5b85612d9791969296611d8b565b9338612b4b565b6040513d88823e3d90fd5b8580fd5b600454612de6936020936001600160a01b039092169290612ef15750905b60405163a9059cbb60e01b8152938492839260048401612280565b03818a885af1801561106d57612ed4575b50612e74575b5081612e0b575b5050612b7d565b60055460405163a9059cbb60e01b81529260209284929091839188918391612e4091906001600160a01b031660048401612280565b03925af1801561292857612e55575b80612e04565b612e6d9060203d602011610ca257610c938183611d8b565b5038612e4f565b6004805460405163a9059cbb60e01b81529260209284928392612ea49290916001600160a01b0316908401612280565b038188865af1801561286e5715612dfd57612ecd9060203d602011610ca257610c938183611d8b565b5038612dfd565b612eec9060203d602011610ca257610c938183611d8b565b612df7565b905090612dcb565b96509350612f17612710612f0f6028548961224d565b0480976120e0565b9338612ae7565b506028541515612ae2565b8590612ad2565b9091506020813d602011612f5c575b81612f4c60209383611d8b565b81010312612d4157519038612ab9565b3d9150612f3f565b612a6a565b506027546001600160a01b0316151561269f565b81471015612f89575050565b81471061301c576000918291829182916001600160a01b03165af1612fac61229b565b5015612fb457565b60405162461bcd60e51b815260206004820152603a60248201527f416464726573733a20756e61626c6520746f2073656e642076616c75652c20726044820152791958da5c1a595b9d081b585e481a185d99481c995d995c9d195960321b6064820152608490fd5b60405162461bcd60e51b815260206004820152601d60248201527f416464726573733a20696e73756666696369656e742062616c616e63650000006044820152606490fd5b6040516370a0823160e01b81526001600160a01b0392831660048201529160209183916024918391165afa908115610ca95760009161309e575090565b90506020813d6020116130c5575b816130b960209383611d8b565b81010312610234575190565b3d91506130ac565b91906000935b8351851015613228576130e685826120ed565b51156131555760005b6130f986846120ed565b5151811015613146576001906131406001600160a01b0361311a89896120ed565b5116838060a01b036131308461241b8c8b6120ed565b51166124218461241b8c8a6120ed565b016130ef565b5094936001905b0193946130d3565b949361316181836120ed565b515160011c60005b81811061317a57505060019061314d565b60019061322261319e61318d86886120ed565b516131988685612101565b906120ed565b51838060a01b036131b38461241b898c6120ed565b5116906131eb6131c78561241b8a8c6120ed565b51926131dd836040519586933060208601612392565b03601f198101845283611d8b565b848060a01b036131fb888c6120ed565b5116896132128661241b8b8a8060a01b03946120ed565b511661251c8661241b8b8d6120ed565b01613169565b5050505050565b604051637921219560e11b602082019081526001600160a01b0393841660248301529290931660448401526064830193909352608482019390935260a060a4820152835160c48201819052919390919060005b828110613357575050916000826132b960e482878583819b999a829b010152601f801991011681010301601f198101835282611d8b565b51925af16132c561229b565b81613328575b50156132d357565b60405162461bcd60e51b815260206004820152602760248201527f5472616e7366657248656c7065723a205452414e534645525f4e46543131353560448201526617d1905253115160ca1b6064820152608490fd5b805180159250821561333d575b5050386132cb565b6133509250602080918301019101612235565b3880613335565b80602080928401015160e4828701015201613282565b6040516323b872dd60e01b602082019081526001600160a01b0393841660248301529390921660448301526064808301949094529281526000928392909183906133b8608482611d8b565b51925af16133c461229b565b81613423575b50156133d257565b60405162461bcd60e51b8152602060048201526024808201527f5472616e7366657248656c7065723a205452414e534645525f46524f4d5f46416044820152631253115160e21b6064820152608490fd5b8051801592508215613438575b5050386133ca565b61344b9250602080918301019101612235565b388061343056fee3e60fbb15d08e7fd26c6b9c1b23f426e6ea1440e9cef171604a15cf86b8357c97c35397cb6acebd9df368c206404479fc4c80dd6034d1b28943aaf582631870944998273e477b495144fb8794c914197f3ccb46be2900f4698fd0ef743c96950000000000000000000000000d500b1d8e8ef31e21c99d1db9a6444d3adf1270a2646970667358221220ca72617c13a9398d862f6f23148050e291e7f92191df2e7a6a031ef5881feda264736f6c634300081c0033405787fa12a823e0f2b7631cc41b3ba8828b3321ca811111fa75cd3aa3bb5ace72a79835b874421caed7ca91287f0dcb5b741a8d5d43f4c5fe40e2a55c2431150000000000000000000000000d500b1d8e8ef31e21c99d1db9a6444d3adf1270",
  "linkReferences": {},
  "deployedLinkReferences": {}
}