{
  "_format": "hh-sol-artifact-1",
  "contractName": "ChallengeDetailV2",
  "sourceName": "contracts/ChallengeDetail/ChallengeDetailV2.sol",
  "abi": [
    {
      "inputs": [
        {
          "internalType": "address payable[]",
          "name": "_stakeHolders",
          "type": "address[]"
        },
        {
          "internalType": "address",
          "name": "_createByToken",
          "type": "address"
        },
        {
          "internalType": "address[]",
          "name": "_erc721Address",
          "type": "address[]"
        },
        {
          "internalType": "uint256[]",
          "name": "_primaryRequired",
          "type": "uint256[]"
        },
        {
          "internalType": "address payable[]",
          "name": "_awardReceivers",
          "type": "address[]"
        },
        {
          "internalType": "uint256",
          "name": "_index",
          "type": "uint256"
        },
        {
          "internalType": "bool[]",
          "name": "_allowGiveUp",
          "type": "bool[]"
        },
        {
          "internalType": "uint256[]",
          "name": "_gasData",
          "type": "uint256[]"
        },
        {
          "internalType": "bool",
          "name": "_allAwardToSponsorWhenGiveUp",
          "type": "bool"
        },
        {
          "internalType": "uint256[]",
          "name": "_awardReceiversPercent",
          "type": "uint256[]"
        },
        {
          "internalType": "uint256",
          "name": "_totalAmount",
          "type": "uint256"
        },
        {
          "internalType": "uint256",
          "name": "_systemFeePercentForStaking",
          "type": "uint256"
        }
      ],
      "stateMutability": "payable",
      "type": "constructor"
    },
    {
      "anonymous": false,
      "inputs": [
        {
          "indexed": true,
          "internalType": "bool",
          "name": "challengeStatus",
          "type": "bool"
        }
      ],
      "name": "CloseChallenge",
      "type": "event"
    },
    {
      "anonymous": false,
      "inputs": [
        {
          "indexed": true,
          "internalType": "address",
          "name": "to",
          "type": "address"
        },
        {
          "indexed": true,
          "internalType": "uint256",
          "name": "valueSend",
          "type": "uint256"
        }
      ],
      "name": "FundTransfer",
      "type": "event"
    },
    {
      "anonymous": false,
      "inputs": [
        {
          "indexed": true,
          "internalType": "address",
          "name": "from",
          "type": "address"
        }
      ],
      "name": "GiveUp",
      "type": "event"
    },
    {
      "anonymous": false,
      "inputs": [
        {
          "indexed": true,
          "internalType": "uint256",
          "name": "currentStatus",
          "type": "uint256"
        }
      ],
      "name": "SendDailyResult",
      "type": "event"
    },
    {
      "anonymous": false,
      "inputs": [
        {
          "indexed": true,
          "internalType": "uint256",
          "name": "stakeId",
          "type": "uint256"
        },
        {
          "indexed": false,
          "internalType": "uint256",
          "name": "amount",
          "type": "uint256"
        },
        {
          "indexed": false,
          "internalType": "uint256",
          "name": "duration",
          "type": "uint256"
        }
      ],
      "name": "StakingCreated",
      "type": "event"
    },
    {
      "anonymous": false,
      "inputs": [
        {
          "indexed": true,
          "internalType": "uint256",
          "name": "stakeId",
          "type": "uint256"
        }
      ],
      "name": "StakingWithdrawn",
      "type": "event"
    },
    {
      "inputs": [],
      "name": "AAVE_POOL_ADDRESS",
      "outputs": [
        {
          "internalType": "address",
          "name": "",
          "type": "address"
        }
      ],
      "stateMutability": "view",
      "type": "function"
    },
    {
      "inputs": [],
      "name": "WMATIC_WPOC_ADDRESS",
      "outputs": [
        {
          "internalType": "address",
          "name": "",
          "type": "address"
        }
      ],
      "stateMutability": "view",
      "type": "function"
    },
    {
      "inputs": [],
      "name": "aavePool",
      "outputs": [
        {
          "internalType": "contract IAavePool",
          "name": "",
          "type": "address"
        }
      ],
      "stateMutability": "view",
      "type": "function"
    },
    {
      "inputs": [],
      "name": "allContractERC20",
      "outputs": [
        {
          "internalType": "address[]",
          "name": "",
          "type": "address[]"
        }
      ],
      "stateMutability": "view",
      "type": "function"
    },
    {
      "inputs": [
        {
          "internalType": "uint256",
          "name": "",
          "type": "uint256"
        }
      ],
      "name": "allowGiveUp",
      "outputs": [
        {
          "internalType": "bool",
          "name": "",
          "type": "bool"
        }
      ],
      "stateMutability": "view",
      "type": "function"
    },
    {
      "inputs": [],
      "name": "challenger",
      "outputs": [
        {
          "internalType": "address payable",
          "name": "",
          "type": "address"
        }
      ],
      "stateMutability": "view",
      "type": "function"
    },
    {
      "inputs": [
        {
          "internalType": "address[]",
          "name": "_listNFTAddress",
          "type": "address[]"
        },
        {
          "internalType": "uint256[][]",
          "name": "_listIndexNFT",
          "type": "uint256[][]"
        },
        {
          "internalType": "address[][]",
          "name": "_listSenderAddress",
          "type": "address[][]"
        },
        {
          "internalType": "bool[]",
          "name": "_statusTypeNft",
          "type": "bool[]"
        }
      ],
      "name": "closeChallenge",
      "outputs": [],
      "stateMutability": "nonpayable",
      "type": "function"
    },
    {
      "inputs": [],
      "name": "createByToken",
      "outputs": [
        {
          "internalType": "address",
          "name": "",
          "type": "address"
        }
      ],
      "stateMutability": "view",
      "type": "function"
    },
    {
      "inputs": [],
      "name": "currentStatus",
      "outputs": [
        {
          "internalType": "uint256",
          "name": "",
          "type": "uint256"
        }
      ],
      "stateMutability": "view",
      "type": "function"
    },
    {
      "inputs": [],
      "name": "dayRequired",
      "outputs": [
        {
          "internalType": "uint256",
          "name": "",
          "type": "uint256"
        }
      ],
      "stateMutability": "view",
      "type": "function"
    },
    {
      "inputs": [],
      "name": "duration",
      "outputs": [
        {
          "internalType": "uint256",
          "name": "",
          "type": "uint256"
        }
      ],
      "stateMutability": "view",
      "type": "function"
    },
    {
      "inputs": [],
      "name": "endTime",
      "outputs": [
        {
          "internalType": "uint256",
          "name": "",
          "type": "uint256"
        }
      ],
      "stateMutability": "view",
      "type": "function"
    },
    {
      "inputs": [
        {
          "internalType": "uint256",
          "name": "",
          "type": "uint256"
        }
      ],
      "name": "erc721Address",
      "outputs": [
        {
          "internalType": "address",
          "name": "",
          "type": "address"
        }
      ],
      "stateMutability": "view",
      "type": "function"
    },
    {
      "inputs": [
        {
          "internalType": "uint256",
          "name": "_index",
          "type": "uint256"
        },
        {
          "internalType": "bool",
          "name": "_isAddressSuccess",
          "type": "bool"
        }
      ],
      "name": "getAwardReceiversAtIndex",
      "outputs": [
        {
          "internalType": "address",
          "name": "",
          "type": "address"
        }
      ],
      "stateMutability": "view",
      "type": "function"
    },
    {
      "inputs": [],
      "name": "getAwardReceiversPercent",
      "outputs": [
        {
          "internalType": "uint256[]",
          "name": "",
          "type": "uint256[]"
        }
      ],
      "stateMutability": "view",
      "type": "function"
    },
    {
      "inputs": [],
      "name": "getBalanceToken",
      "outputs": [
        {
          "internalType": "uint256[]",
          "name": "",
          "type": "uint256[]"
        }
      ],
      "stateMutability": "view",
      "type": "function"
    },
    {
      "inputs": [],
      "name": "getChallengeHistory",
      "outputs": [
        {
          "internalType": "uint256[]",
          "name": "date",
          "type": "uint256[]"
        },
        {
          "internalType": "uint256[]",
          "name": "data",
          "type": "uint256[]"
        }
      ],
      "stateMutability": "view",
      "type": "function"
    },
    {
      "inputs": [],
      "name": "getChallengeInfo",
      "outputs": [
        {
          "internalType": "uint256",
          "name": "challengeCleared",
          "type": "uint256"
        },
        {
          "internalType": "uint256",
          "name": "challengeDayRequired",
          "type": "uint256"
        },
        {
          "internalType": "uint256",
          "name": "daysRemained",
          "type": "uint256"
        }
      ],
      "stateMutability": "view",
      "type": "function"
    },
    {
      "inputs": [],
      "name": "getContractBalance",
      "outputs": [
        {
          "internalType": "uint256",
          "name": "",
          "type": "uint256"
        }
      ],
      "stateMutability": "view",
      "type": "function"
    },
    {
      "inputs": [],
      "name": "getState",
      "outputs": [
        {
          "internalType": "enum ChallengeDetailV2.ChallengeState",
          "name": "",
          "type": "uint8"
        }
      ],
      "stateMutability": "view",
      "type": "function"
    },
    {
      "inputs": [
        {
          "internalType": "address[]",
          "name": "_listNFTAddress",
          "type": "address[]"
        },
        {
          "internalType": "uint256[][]",
          "name": "_listIndexNFT",
          "type": "uint256[][]"
        },
        {
          "internalType": "address[][]",
          "name": "_listSenderAddress",
          "type": "address[][]"
        },
        {
          "internalType": "bool[]",
          "name": "_statusTypeNft",
          "type": "bool[]"
        }
      ],
      "name": "giveUp",
      "outputs": [],
      "stateMutability": "nonpayable",
      "type": "function"
    },
    {
      "inputs": [],
      "name": "goal",
      "outputs": [
        {
          "internalType": "uint256",
          "name": "",
          "type": "uint256"
        }
      ],
      "stateMutability": "view",
      "type": "function"
    },
    {
      "inputs": [],
      "name": "indexNft",
      "outputs": [
        {
          "internalType": "uint256",
          "name": "",
          "type": "uint256"
        }
      ],
      "stateMutability": "view",
      "type": "function"
    },
    {
      "inputs": [],
      "name": "isFinished",
      "outputs": [
        {
          "internalType": "bool",
          "name": "",
          "type": "bool"
        }
      ],
      "stateMutability": "view",
      "type": "function"
    },
    {
      "inputs": [],
      "name": "isSuccess",
      "outputs": [
        {
          "internalType": "bool",
          "name": "",
          "type": "bool"
        }
      ],
      "stateMutability": "view",
      "type": "function"
    },
    {
      "inputs": [
        {
          "internalType": "address",
          "name": "",
          "type": "address"
        },
        {
          "internalType": "address",
          "name": "",
          "type": "address"
        },
        {
          "internalType": "uint256",
          "name": "",
          "type": "uint256"
        },
        {
          "internalType": "uint256",
          "name": "",
          "type": "uint256"
        },
        {
          "internalType": "bytes",
          "name": "",
          "type": "bytes"
        }
      ],
      "name": "onERC1155Received",
      "outputs": [
        {
          "internalType": "bytes4",
          "name": "",
          "type": "bytes4"
        }
      ],
      "stateMutability": "pure",
      "type": "function"
    },
    {
      "inputs": [
        {
          "internalType": "address",
          "name": "",
          "type": "address"
        },
        {
          "internalType": "address",
          "name": "",
          "type": "address"
        },
        {
          "internalType": "uint256",
          "name": "",
          "type": "uint256"
        },
        {
          "internalType": "bytes",
          "name": "",
          "type": "bytes"
        }
      ],
      "name": "onERC721Received",
      "outputs": [
        {
          "internalType": "bytes4",
          "name": "",
          "type": "bytes4"
        }
      ],
      "stateMutability": "nonpayable",
      "type": "function"
    },
    {
      "inputs": [
        {
          "internalType": "uint256[]",
          "name": "_day",
          "type": "uint256[]"
        },
        {
          "internalType": "uint256[]",
          "name": "_stepIndex",
          "type": "uint256[]"
        },
        {
          "internalType": "uint64[2]",
          "name": "_data",
          "type": "uint64[2]"
        },
        {
          "internalType": "bytes",
          "name": "_signature",
          "type": "bytes"
        },
        {
          "internalType": "address[]",
          "name": "_listGachaAddress",
          "type": "address[]"
        },
        {
          "internalType": "address[]",
          "name": "_listNFTAddress",
          "type": "address[]"
        },
        {
          "internalType": "uint256[][]",
          "name": "_listIndexNFT",
          "type": "uint256[][]"
        },
        {
          "internalType": "address[][]",
          "name": "_listSenderAddress",
          "type": "address[][]"
        },
        {
          "internalType": "bool[]",
          "name": "_statusTypeNft",
          "type": "bool[]"
        },
        {
          "internalType": "uint64[2]",
          "name": "_timeRange",
          "type": "uint64[2]"
        }
      ],
      "name": "sendDailyResult",
      "outputs": [],
      "stateMutability": "nonpayable",
      "type": "function"
    },
    {
      "inputs": [],
      "name": "sponsor",
      "outputs": [
        {
          "internalType": "address payable",
          "name": "",
          "type": "address"
        }
      ],
      "stateMutability": "view",
      "type": "function"
    },
    {
      "inputs": [],
      "name": "stakingStakeId",
      "outputs": [
        {
          "internalType": "uint256",
          "name": "",
          "type": "uint256"
        }
      ],
      "stateMutability": "view",
      "type": "function"
    },
    {
      "inputs": [],
      "name": "stakingToken",
      "outputs": [
        {
          "internalType": "address",
          "name": "",
          "type": "address"
        }
      ],
      "stateMutability": "view",
      "type": "function"
    },
    {
      "inputs": [],
      "name": "startTime",
      "outputs": [
        {
          "internalType": "uint256",
          "name": "",
          "type": "uint256"
        }
      ],
      "stateMutability": "view",
      "type": "function"
    },
    {
      "inputs": [],
      "name": "systemFeePercentForStaking",
      "outputs": [
        {
          "internalType": "uint256",
          "name": "",
          "type": "uint256"
        }
      ],
      "stateMutability": "view",
      "type": "function"
    },
    {
      "inputs": [],
      "name": "totalBalanceBaseToken",
      "outputs": [
        {
          "internalType": "uint256",
          "name": "",
          "type": "uint256"
        }
      ],
      "stateMutability": "view",
      "type": "function"
    },
    {
      "inputs": [],
      "name": "totalReward",
      "outputs": [
        {
          "internalType": "uint256",
          "name": "",
          "type": "uint256"
        }
      ],
      "stateMutability": "view",
      "type": "function"
    },
    {
      "inputs": [
        {
          "internalType": "address[]",
          "name": "_listTokenErc20",
          "type": "address[]"
        },
        {
          "internalType": "address[]",
          "name": "_listNFTAddress",
          "type": "address[]"
        },
        {
          "internalType": "uint256[][]",
          "name": "_listIndexNFT",
          "type": "uint256[][]"
        },
        {
          "internalType": "bool[]",
          "name": "_statusTypeNft",
          "type": "bool[]"
        }
      ],
      "name": "withdrawTokensOnCompletion",
      "outputs": [],
      "stateMutability": "nonpayable",
      "type": "function"
    },
    {
      "stateMutability": "payable",
      "type": "receive"
    }
  ],
  "bytecode": "0x61014080604052600060c052614f0d803803809161001d8285611295565b833981019061018081830312610a025780516001600160401b038111610a0257826100499183016112e5565b9161005660208301611358565b60408301519091906001600160401b038111610a02578161007891850161136c565b60608401519092906001600160401b038111610a02578261009a9186016113d1565b60808501516001600160401b038111610a0257836100b99187016112e5565b60e05260a085015160c08601519094906001600160401b038111610a025786019284601f85011215610a02578351956100f1876112ce565b946100ff6040519687611295565b878652602086016020819960051b83010191888311610a0257602001905b82821061127d5750505060e08801516001600160401b038111610a025786610146918a016113d1565b906101546101008a0161142e565b6101208a01519097906001600160401b038111610a02576101609161017a918c016113d1565b9961014081015160a0520151946003875103611238576101998761143b565b516111fa575b60c0516101005281156111c5576101b583611461565b5160805260a05160805160a0510311610257576101f48a516101e96101d9826112ce565b6040516101205261012051611295565b8061012051526112ce565b601f190136602061012051013760c0515b8a5181101561026f57610218818c61147e565b51908160805160a0510381020460805160a05103148215171561025757606460019260805160a051030204610250826101205161147e565b5201610205565b634e487b7160e01b60c051526011600452602460c051fd5b5089908b60e051516101205151036111905760c051610100525b8361010051106110df5783610100525b60e0515161010051101561035f576102b7610100516101205161147e565b5115610329576102cd610100516101205161147e565b516101005160e0516001600160a01b03916102e79161147e565b511660c05152601c602052604060c051205561031660175461030f610100516101205161147e565b5190611492565b6017556001610100510161010052610299565b60405162461bcd60e51b815260206004820152600e60248201526d496e76616c69642076616c75653160901b6044820152606490fd5b6001600160a01b0361037082611471565b51600380546001600160a01b031916929091169190911790556001600160a01b0361039a8261143b565b51600480546001600160a01b031916929091169190911790556001600160a01b03906103c590611461565b51600580546001600160a01b0319169290911691909117905585516001600160401b038111610d3b57680100000000000000008111610d3b57600254816002558082106110be575b5060208701600260c05152602060c0512060c0515b8381106110a157506001600160a01b0392506104419150889050611471565b51166040519063046ff7ab60e31b82528160048160c051935afa908115610a085760c05191611062575b508051906001600160401b038211610d3b57680100000000000000008211610d3b5760209060015483600155808410611042575b5001600160c05152602060c0512060c0515b838110611025575060049250602091506001600160a01b0390506104d489611471565b51166040519283809263708af3bf60e11b82525afa908115610a085760c05191610feb575b5060c05180546001600160a01b0319166001600160a01b039290921691909117905561052481611471565b516010556105318161143b565b5160115561053e81611461565b51601255805160031015610fd3576080810151601455805160041015610fd35760a00151601355601e805460ff1916905560e051516001600160401b038111610d3b57680100000000000000008111610d3b5760065481600655808210610fb2575b50602060e05101600660c05152602060c0512060c0515b838110610f9557505061012051519150506001600160401b038111610d3b57680100000000000000008111610d3b5760075481600755808210610f74575b5060206101205101600760c05152602060c0512060c0515b838110610f605750508251929150506001600160401b038211610d3b57680100000000000000008211610d3b57602090601f5483601f55808410610f40575b5001601f60c05152602060c0512060c0515b838110610f2c57505050506004929161067991600a55611461565b51600d55602480546001600160a01b039283166001600160a01b0319821681179092559390916020916106ab90611471565b51166040519384809263104ac95d60e31b82525afa918215610a085760c05192610eed575b506040805163433108e960e01b815292839060049082906001600160a01b03165afa918215610a085760c0519060c05193610ea5575b5060a89290921b60ff60a81b166001600160b01b0319909316179190911760a091821b60ff60a01b1617602455608051905103600c558151936001600160401b038511610d3b57680100000000000000008511610d3b5760195485601955808610610e52575b50601960c05152602060c05120948060051c9060c0515b828110610e0b5750601f198116900380610dbb575b5050506107a9929350602855611471565b5115159081610db3575b50610d9d575b602580546001600160a01b03191673794a61358d6845594f94dc1db02a252b5b4814ad179055600454600d54906001600160a01b031647821115610c78575b5050600454600d5460405160c05190926001600160a01b0316907f97c35397cb6acebd9df368c206404479fc4c80dd6034d1b28943aaf5826318709080a360805160a05103610851575b604051613830908161169d8239f35b6024546001600160a01b031680610ab857505060805160a051033410610a6557600080516020614eed8339815191523b15610a0257604051630d0e30db60e41b815260c0518160048160805160a05103600080516020614eed8339815191525af18015610a0857610a4c575b506001600160a01b036108dd600080516020614eed8339815191526114da565b1660018060a01b0319602754161760275560405163095ea7b360e01b815273794a61358d6845594f94dc1db02a252b5b4814ad600482015260805160a05103602482015260208160448160c051600080516020614eed8339815191525af18015610a0857610a15575b506025546001600160a01b0316803b15610a02576040519063617ba03760e01b8252600080516020614eed833981519152600483015260805160a05103602483015230604483015260c05160648301528160848160c0519360c051905af18015610a08576109e9575b5060016026556001600080516020614ecd833981519152604060105481519060805160a0510382526020820152a260016026555b80610842565b60c0516109f591611295565b60c051610a0257806109af565b60c05180fd5b6040513d60c051823e3d90fd5b6020813d602011610a44575b81610a2e60209383611295565b81010312610a0257610a3f9061142e565b610946565b3d9150610a21565b60c051610a5891611295565b60c051610a0257806108bd565b60405162461bcd60e51b815260206004820152602560248201527f496e73756666696369656e74204d4154494320666f72206e6174697665207374604482015264616b696e6760d81b6064820152608490fd5b816064816020936323b872dd60e01b825233600483015230602483015260805160a05103604483015260c051905af18015610a0857610c41575b506024546001600160a01b0390811690610b0b826114da565b1660018060a01b0319602754161760275560405163095ea7b360e01b815273794a61358d6845594f94dc1db02a252b5b4814ad600482015260805160a05103602482015260208160448160c051865af18015610a0857610c0a575b506025546001600160a01b0316803b15610a02576040519163617ba03760e01b8352600483015260805160a05103602483015230604483015260c05160648301528160848160c0519360c051905af18015610a0857610bf8575b5060016026556001600080516020614ecd833981519152604060105481519060805160a0510382526020820152a260016026556109e3565b60c051610c0491611295565b80610bc0565b6020813d602011610c39575b81610c2360209383611295565b81010312610a0257610c349061142e565b610b66565b3d9150610c16565b6020813d602011610c70575b81610c5a60209383611295565b81010312610a0257610c6b9061142e565b610af2565b3d9150610c4d565b814710610d585760c051918291829182915af13d15610d53573d6001600160401b038111610d3b5760405190610cb8601f8201601f191660200183611295565b815260c0513d916020013e5b15610cd05780806107f8565b60405162461bcd60e51b815260206004820152603a60248201527f416464726573733a20756e61626c6520746f2073656e642076616c75652c207260448201527f6563697069656e74206d617920686176652072657665727465640000000000006064820152608490fd5b634e487b7160e01b60c051526041600452602460c051fd5b610cc4565b60405162461bcd60e51b815260206004820152601d60248201527f416464726573733a20696e73756666696369656e742062616c616e63650000006044820152606490fd5b6201000062ff000019601a541617601a556107b9565b9050816107b3565b60c0519290835b818110610ddc575050506107a99495015583928580610798565b9091936020610e016001928488511515919060ff809160031b9316831b921b19161790565b9501929101610dc2565b60c051805b60208110610e25575088820155600101610783565b94906020610e496001928885511515919060ff809160031b9316831b921b19161790565b92019501610e10565b610e8290601960c05152602060c05120601f80890160051c820192818a1680610e88575b500160051c01906114b5565b8561076c565b6000198501908154906000199060200360031b1c1690558a610e76565b9250506040823d604011610ee5575b81610ec160409383611295565b81010312610a0257610ede6020610ed7846114cc565b93016114cc565b9188610706565b3d9150610eb4565b91506020823d602011610f24575b81610f0860209383611295565b81010312610a02576040610f1d600493611358565b92506106d0565b3d9150610efb565b60019060208451940193818401550161065e565b610f5a90601f60c05152848460c0512091820191016114b5565b8b61064c565b60019060208451940193818401550161060d565b610f8f90600760c0515282602060c0512091820191016114b5565b8a6105f5565b82516001600160a01b0316818301556020909201916001016105b7565b610fcd90600660c0515282602060c0512091820191016114b5565b8a6105a0565b634e487b7160e01b60c051526032600452602460c051fd5b90506020813d60201161101d575b8161100660209383611295565b81010312610a025761101790611358565b8b6104f9565b3d9150610ff9565b82516001600160a01b0316818301556020909201916001016104b1565b61105c90600160c05152848460c0512091820191016114b5565b8d61049f565b90503d8060c051833e6110758183611295565b8101602082820312610a025781516001600160401b038111610a025761109b920161136c565b8b61046b565b82516001600160a01b031681830155602090920191600101610422565b6110d990600260c0515282602060c0512091820191016114b5565b8b61040d565b6110ef610100516101205161147e565b511561115a57611105610100516101205161147e565b516101005160e0516001600160a01b039161111f9161147e565b511660c05152601b602052604060c051205561114760165461030f610100516101205161147e565b6016556001610100510161010052610289565b60405162461bcd60e51b815260206004820152600e60248201526d0496e76616c69642076616c7565360941b6044820152606490fd5b60405162461bcd60e51b815260206004820152600d60248201526c496e76616c6964206c6973747360981b6044820152606490fd5b60405162461bcd60e51b815260206004820152600d60248201526c496e76616c69642076616c756560981b6044820152606490fd5b60a051341461019f5760405162461bcd60e51b815260206004820152600d60248201526c125b9d985b1a5908185dd85c99609a1b6044820152606490fd5b60405162461bcd60e51b815260206004820152601560248201527f496e76616c696420616c6c6f77206769766520757000000000000000000000006044820152606490fd5b6020809161128a8461142e565b81520191019061011d565b601f909101601f19168101906001600160401b038211908210176112b857604052565b634e487b7160e01b600052604160045260246000fd5b6001600160401b0381116112b85760051b60200190565b9080601f83011215611353578151906112fd826112ce565b9261130b6040519485611295565b82845260208085019360051b82010191821161135357602001915b8183106113335750505090565b82516001600160a01b038116810361135357815260209283019201611326565b600080fd5b51906001600160a01b038216820361135357565b9080601f83011215611353578151611383816112ce565b926113916040519485611295565b81845260208085019260051b82010192831161135357602001905b8282106113b95750505090565b602080916113c684611358565b8152019101906113ac565b9080601f830112156113535781516113e8816112ce565b926113f66040519485611295565b81845260208085019260051b82010192831161135357602001905b82821061141e5750505090565b8151815260209182019101611411565b5190811515820361135357565b80516001101561144b5760400190565b634e487b7160e01b600052603260045260246000fd5b80516002101561144b5760600190565b80511561144b5760200190565b805182101561144b5760209160051b010190565b9190820180921161149f57565b634e487b7160e01b600052601160045260246000fd5b8181106114c0575050565b600081556001016114b5565b519060ff8216820361135357565b6001600160a01b0316600080516020614eed83398151915281146116835773c2132d05d31c914a87c6611c10748aeb04b58e8f811461166a57732791bca1f2de4661ed88a30c99a7a9449aa84174811461165157738f3cf7ad23cd3cadbd9735aff958023239c6a063811461163857737ceb23fd6bc0add59e62ac25578270cff1b9f619811461161f57731bfd67037b42cf73acf2047067bd4f2c47d9bfd681146116065773d6df932a45c0f255f85145f286ea0b292b21c90b146115ee5760405162461bcd60e51b815260206004820152602760248201527f61546f6b656e2061646472657373206e6f7420666f756e6420666f722074686960448201526639903a37b5b2b760c91b6064820152608490fd5b73f329e36c7bf6e5e86ce2150875a84ce77f47737590565b50735c2ed810328349100a66b82b78a1791b101c9d6190565b5073e50fa9b3c56ffb159cb0fca61f5c9d750e8128c890565b507382e64f49ed5ec1bc6e43dad4fc8af9bb3a2312ee90565b5073625e7708f30ca75bfd92583e0c60ccde3c2839a690565b50736ab707aca953edaefbc4fd23ba7329424149062090565b50736d80113e533a2c0fe82eabd35f1875dcea89ea979056fe60806040526004361015610031575b361561001957600080fd5b60ff601a541661002557005b61002f34336132a5565b005b6000803560e01c80630781b0b014611e5f5780630860163c14611d975780630b6c754b14611d715780630bd2d06514611d535780630fb5a6b414611d355780631425d2fa14611cc057806314f1157214611c8a578063150b7a0214611c345780631865c57d14611bf45780632a4e950b14611bd65780632df3690614611bad5780633197cbb614611b8f5780634019388314611b7157806340e9ad6014611974578063534db0e21461194b578063542b0c9c1461190c5780635466e24d146118dd5780636452c9121461187a5780636e398f7b146118515780636f9fb98a1461183557806372f702f31461180c578063750142e6146117ee57806377c93662146117c5578063786877431461169357806378e97925146116755780637b3529621461165257806381de5acb14611634578063a03e4bc31461160b578063ac4f57a8146109a2578063b1f516ae14610984578063b79e25d1146103d0578063dddc9ede146103b2578063e08346df146102d0578063ef8a9235146102b2578063f23a6e61146102585763fa6666a2146101c9575061000e565b34610255578060031936011261025557604051601f8054808352908352909160208301917fa03837a25210ee280c2113ff4b77ca23440b19d4866cca721c801278fd08d807915b81811061023f5761023b8561022781870382612057565b604051918291602083526020830190611fc1565b0390f35b8254845260209093019260019283019201610210565b80fd5b50346102555760a036600319011261025557610272611ff5565b5061027b612010565b506084356001600160401b0381116102ae5761029b903690600401612095565b5060405163f23a6e6160e01b8152602090f35b5080fd5b50346102555780600319360112610255576020601554604051908152f35b50346102555780600319360112610255576040516009548082528160208101600985526020852092855b81811061039957505061030f92500382612057565b60405160088054808352908452909260208401917ff3f7a9fe364faab93b216da50a3214154f22a0a2b415b23a84c8169e8b636ee3915b818110610383576103758561023b8861036181890382612057565b604051938493604085526040850190611fc1565b908382036020850152611fc1565b8254845260209093019260019283019201610346565b84548352600194850194869450602090930192016102fa565b50346102555780600319360112610255576020600b54604051908152f35b5034610255576103df36612321565b6019549293921561097057601985526000805160206137bb83398151915254600386901b9290831c60ff161561093957601a5460ff8160181c166108f75760ff610446916104316011544210156124cb565b61043f601254421115612486565b1615612486565b6004546001600160a01b0316331480156108e3575b61046490612429565b61046c6129cf565b60ff60245460a81c16948560640394606486116108cf57606461048f874761252f565b049460ff601a5460101c1660001461060a57506003549496946104bc9088906001600160a01b03166132a5565b879460641415945b60015481101561055b5780866104f46104de600194611f58565b903091868060a01b0391549060031b1c16613389565b81610551575b50610506575b016104c4565b61054c61051282611f58565b848060a01b0391549060031b1c16838060a01b036003541660646105458c61053987611f73565b90549060031b1c61252f565b04916125ad565b610500565b90501515386104fa565b509193509193506105889460018060a01b036003541660008051602061379b8339815191528880a36133f5565b600554600f546105a0916001600160a01b03166132a5565b600554600f54906001600160a01b031660008051602061379b8339815191528380a3630100000163ff0000ff19601a541617601a55600360ff19601e541617601e55337f7d0809ad7f5cf504263fbf4e67eb6f84a6459ab4f22e67df29b6e110bbf8b4b68280a280f35b949296506106296106206015959395548561252f565b60135490612542565b60035490929061064c906001600160a01b031661064685876123ac565b906132a5565b885b6001548110156107365760646106678961053984611f73565b0461068a61067483611f58565b9054309160031b1c6001600160a01b0316613389565b610698575b5060010161064e565b6106dc6106b46106ad6106206015548561252f565b80936123ac565b6106bd84611f58565b9054600380546001600160a01b039081169390911b9190911c166125ad565b602254600160401b8110156107225760019291610703828561071c94016022556022611fa9565b90919082549060031b91821b91600019901b1916179055565b9061068f565b634e487b7160e01b8c52604160045260248cfd5b50959496929190928896831515915b8a600a548a10156108bd578985878661085e575b5050505b60015481101561085257898c61077561067484611f58565b610784575b505060010161075d565b9060406107b29261079485611f58565b905460039190911b1c6001600160a01b031681526020805220611fa9565b90549060031b1c60225482101561083e57906108356108008b8f8f6107ef6001976107f99284602260649652896020822001905054901c9061252f565b9261053987611f73565b0490612542565b8c61082161080d85611f58565b878060a01b0391549060031b1c1691611f3d565b868060a01b0391549060031b1c16906125ad565b9050898c61077a565b634e487b7160e01b8d52603260045260248dfd5b50600190980197610745565b6108af6106469260406108b49661088f61087788611f3d565b905460039190911b1c6001600160a01b031697611f3d565b905460039190911b1c6001600160a01b03168152601b602052205461252f565b612542565b8a898587610759565b509650965050505061058894506133f5565b634e487b7160e01b88526011600452602488fd5b506003546001600160a01b0316331461045b565b60405162461bcd60e51b815260206004820152601a602482015279054686973206368616c6c656e67652077617320676976652075760341b6044820152606490fd5b60405162461bcd60e51b815260206004820152600f60248201526e043616e206e6f74206769766520757608c1b6044820152606490fd5b634e487b7160e01b85526032600452602485fd5b50346102555780600319360112610255576020602854604051908152f35b503461025557610180366003190112610255576004356001600160401b0381116102ae576109d4903690600401612161565b6024356001600160401b0381116115e7576109f3903690600401612161565b9136606312156102555760405191610a0a83612026565b82366084116115e7576044905b608482106115eb5750506084356001600160401b0381116115e757366023820112156115e7576004810135946001600160401b0386116115e35736602487840101116115e35760a4356001600160401b0381116115df57610a7c9036906004016120f3565b9160c4356001600160401b0381116115db57610a9c9036906004016120f3565b9660e4356001600160401b03811161115057610abc9036906004016121be565b91610104356001600160401b03811161114c57610add9036906004016122a3565b90610124356001600160401b0381116115d757610afe90369060040161223c565b923661016312156115d75760405199610b168b612026565b8a366101841161155b57610144905b61018482106115b3575050610b3f60ff601a541615612486565b610b4d6011544210156124cb565b6004546001600160a01b0316330361155f57610b67611ed4565b905460039190911b1c6001600160a01b031691823b1561155b576040516349493da960e11b815260a06004820152938b93859390929091610bc0610bae60a487018f611fc1565b8681036003190160248801528c611fc1565b9286604487015b6002821061152d57505050848093838894602460209560031986860301608487015282855201858401378181018401859052601f01601f1916010301925af180156115225761150e575b50855198879688600c54918a5b8d811061126a57508a9b6008549a6014549b60001981019081119e8f5b6112565781811015610c74578d610c5182611f22565b90549060031b1c10610c67575b6001018f610c3b565b600c5496508e9550610c5e565b50508e9c9b508061124f575b1561123b57610c918c6018546123e3565b6000198101908111611227576018555b6000198c019b8c11918261122757610cb98d8b6123cf565b51601454119283611206575b836111c0575b505050899a509897986111b8575b60185490610cea60155480936123ac565b9260105493610cfc60135480966123ac565b1091826111af575b50816111a3575b5015610df657505092610d2a93600260ff19601e541617601e55612868565b815b8351811015610dcb576001600160a01b03610d4782866123cf565b5116906020604051809363030a07d160e11b825230600483015260406024830152818781610d78604482018a611fc1565b03925af1918215610dc057600192610d92575b5001610d2c565b610db29060203d8111610db9575b610daa8183612057565b810190612517565b5086610d8b565b503d610da0565b6040513d86823e3d90fd5b826015547ffdf48e505ae72081bb7ad5b92b649ee333b0ca8f6aecc6d6fbfa5527a8e067118280a280f35b90919392501015610e0a575b505050610d2a565b93949192909450600160ff19601e541617601e55610e266129cf565b600554600e54610e3e916001600160a01b03166132a5565b600554600e54906001600160a01b031660008051602061379b8339815191528880a385945b600a54861015610f6e57610eb8610e7987611f3d565b905460039190911b1c6001600160a01b0316610e9488611f3d565b905460039190911b1c6001600160a01b03168952601b6020526040892054906132a5565b865b600154811015610f625780610ee9610ed3600193611f58565b903091858060a01b0391549060031b1c16613389565b610ef4575b01610eba565b610f5d610f0082611f58565b848060a01b0391549060031b1c168a610f508b6040610f1e82611f3d565b898060a01b0391549060031b1c1693610f3688611f58565b8a8060a01b0391549060031b1c1681526020805220611fa9565b90549060031b1c916125ad565b610eee565b50600190950194610e63565b9290939194506019546002101561118f57601986526000805160206137bb8339815191525486949392919060101c60ff16610fd5575b600454610fbe936001600160a01b0390911692919061269e565b61010161ffff19601a541617601a55848080610e02565b9091929350610fe2611ed4565b60018060a01b0391549060031b1c16601454601054906013549260018060a01b0360245416600c54601f541561117b57601f8c5260208c20548c60031b6006541561116757928d9261010495926040989795600686526020862060018060a01b039054821c169260018060a01b0360045416948b519c8d9b8c9a63f7302b8160e01b8c5260048c015260248b015260448a0152606489015260848801521c60a486015260c485015260e48401525af1801561115c578791889161110b575b50600b55600254600160401b8110156110f75791610fbe93916110cc8460018b99989601600255611ea3565b81546001600160a01b0393841660039290921b91821b9390911b191691909117905591925090610fa4565b634e487b7160e01b88526041600452602488fd5b9150506040813d604011611154575b8161112760409383612057565b81010312611150578051906001600160a01b038216820361114c5760200151886110a0565b8780fd5b8680fd5b3d915061111a565b6040513d89823e3d90fd5b634e487b7160e01b8e52603260045260248efd5b634e487b7160e01b8c52603260045260248cfd5b634e487b7160e01b86526032600452602486fd5b9050600c54148b610d0b565b1591508c610d04565b506001610cd9565b909192506111f2578a9b6111d6919b9a9b6123cf565b516020909101519899986001600160401b0316118b8080610ccb565b634e487b7160e01b8b52601160045260248bfd5b508b92506112148d826123cf565b5182516001600160401b03161092610cc5565b634e487b7160e01b8c52601160045260248cfd5b6112478c6018546123e3565b601855610ca1565b5082610c80565b634e487b7160e01b8f52601160045260248ffd5b9798938b9d9b9c979396929c9a95919a955b6009548710156113f55761128f87611f07565b90549060031b1c60018060401b038a51161115806113d0575b1561137e57506112b786611f22565b90549060031b1c6014541115611327576001956000198d018d811161131257908f611301838f8f936112fb6112f160019861130b976123cf565b5161070388611f22565b506123cf565b5161070383611f07565b019561127c565b50634e487b7160e01b8f52601160045260248ffd5b60405162461bcd60e51b815260206004820152602960248201527f496e76616c696420737465703a206578636565647320676f616c206f72206e6f6044820152683a1033b932b0ba32b960b91b6064820152608490fd5b958a8c61139b8c61138e85611f07565b90549060031b1c926123cf565b51146113ab575b5060019061130b565b97506001906113c86113be8c809b6123cf565b5161070383611f22565b90508a6113a2565b506113da87611f07565b90549060031b1c60018060401b0360208b01511610156112a8565b9a9195509398979c9a9c9b919592969b8a15611466575b611416818a6123cf565b51601454111580611459575b61142f575b600101610c1e565b6015546001810180911161144557601555611427565b634e487b7160e01b8d52601160045260248dfd5b5060155460135411611422565b808403611495575b611478818a6123cf565b5161148382846123cf565b518d52601d60205260408d205561140c565b61149f81836123cf565b51600954600160401b8110156114fa57906107038260016114c594016009556009611fa9565b6114cf818a6123cf565b51600854600160401b8110156114fa57906107038260016114f594016008556008611fa9565b61146e565b634e487b7160e01b8e52604160045260248efd5b8761151b91989298612057565b9538610c11565b6040513d8a823e3d90fd5b60019294969850602091939597508190838060401b038651168152019301910190879593918f979593610bc7565b8a80fd5b60405162461bcd60e51b815260206004820152602660248201527f4f6e6c79206368616c6c656e6765722063616e2063616c6c20746869732066756044820152653731ba34b7b760d11b6064820152608490fd5b81356001600160401b03811681036115d357815260209182019101610b25565b8c80fd5b8880fd5b8580fd5b8480fd5b8380fd5b8280fd5b81356001600160401b03811681036115df57815260209182019101610a17565b50346102555780600319360112610255576025546040516001600160a01b039091168152602090f35b50346102555780600319360112610255576020601354604051908152f35b5034610255578060031936011261025557602060ff601a54166040519015158152f35b50346102555780600319360112610255576020601154604051908152f35b5034610255576116a236612321565b9160018060a01b0360045416331480156117b1575b6116c090612429565b6012546202a300810180911161179d5742111561175857601a5460ff8160081c1615908161174c575b501561171b576116f893612868565b600460ff19601e541617601e558060008051602061377b8339815191528180a280f35b60405162461bcd60e51b815260206004820152600960248201526810d85b9d0818d85b1b60ba1b6044820152606490fd5b60ff91501615386116e9565b60405162461bcd60e51b815260206004820152601e60248201527f4368616c6c656e676520686173206e6f742066696e69736865642079657400006044820152606490fd5b634e487b7160e01b86526011600452602486fd5b506003546001600160a01b031633146116b7565b50346102555780600319360112610255576003546040516001600160a01b039091168152602090f35b50346102555780600319360112610255576020600c54604051908152f35b50346102555780600319360112610255576027546040516001600160a01b039091168152602090f35b5034610255578060031936011261025557602047604051908152f35b50346102555780600319360112610255576024546040516001600160a01b039091168152602090f35b50346102555760203660031901126102555760043590601954821015610255576019548210156118c95760209160f88383601960ff9552208260051c01549160031b161c166040519015158152f35b634e487b7160e01b81526032600452602490fd5b5034610255578060031936011261025557602060405173794a61358d6845594f94dc1db02a252b5b4814ad8152f35b503461025557604036600319011261025557602435908115158203610255576020611939836004356123f0565b6040516001600160a01b039091168152f35b50346102555780600319360112610255576004546040516001600160a01b039091168152602090f35b5034610255576080366003190112610255576004356001600160401b0381116102ae576119a59036906004016120f3565b6024356001600160401b0381116115e7576119c49036906004016120f3565b906044356001600160401b0381116115e3576119e49036906004016121be565b916064356001600160401b0381116115df57611a0490369060040161223c565b60ff601a541615611b1c5784546001600160a01b03163303611ad857845b8351811015611abc576001600160a01b03611a3d82866123cf565b5116906040516370a0823160e01b8152306004820152602081602481865afa908115611522578891611a8a575b508754600193611a8492916001600160a01b0316906125ad565b01611a22565b90506020813d8211611ab4575b81611aa460209383612057565b8101031261114c57516001611a6a565b3d9150611a97565b85548690611ad5906001600160a01b031684888761269e565b80f35b606460405162461bcd60e51b815260206004820152602060248201527f4f6e6c792072657475726e6564206e66742077616c6c657420616464726573736044820152fd5b60405162461bcd60e51b815260206004820152602760248201527f546865206368616c6c656e676520686173206e6f7420796574206265656e20666044820152661a5b9a5cda195960ca1b6064820152608490fd5b50346102555780600319360112610255576020601454604051908152f35b50346102555780600319360112610255576020601254604051908152f35b503461025557806003193601126102555760206040516000805160206137db8339815191528152f35b50346102555780600319360112610255576020602354604051908152f35b503461025557806003193601126102555760ff601e5416604051906005811015611c2057602092508152f35b634e487b7160e01b83526021600452602483fd5b503461025557608036600319011261025557611c4e611ff5565b50611c57612010565b506064356001600160401b0381116102ae57611c77903690600401612095565b50604051630a85bd0160e11b8152602090f35b50346102555780600319360112610255576060601554601354611cad82826123ac565b9060405192835260208301526040820152f35b503461025557806003193601126102555760405160218054808352908352909160208301917f3a6357012c1a3ae0a17d304c9920310382d968ebcc4b1771f41c6b304205b570915b818110611d1f5761023b8561022781870382612057565b8254845260209093019260019283019201611d08565b50346102555780600319360112610255576020601054604051908152f35b50346102555780600319360112610255576020602654604051908152f35b5034610255578060031936011261025557602060ff601a5460081c166040519015158152f35b503461025557806003193601126102555760405160018054808352908352602082019081907fb10e2d527612073b26eecdfd717e6a320cf44b4afac2b0732d9fcbe2b7fa0cf690855b818110611e405750505082611df6910383612057565b604051928392602084019060208552518091526040840192915b818110611e1e575050500390f35b82516001600160a01b0316845285945060209384019390920191600101611e10565b82546001600160a01b0316845260209093019260019283019201611de0565b50346102555760203660031901126102555760043590600254821015610255576020611e8a83611ea3565b905460405160039290921b1c6001600160a01b03168152f35b600254811015611ebe57600260005260206000200190600090565b634e487b7160e01b600052603260045260246000fd5b60025415611ebe57600260009081527f405787fa12a823e0f2b7631cc41b3ba8828b3321ca811111fa75cd3aa3bb5ace91565b600954811015611ebe57600960005260206000200190600090565b600854811015611ebe57600860005260206000200190600090565b600654811015611ebe57600660005260206000200190600090565b600154811015611ebe57600160005260206000200190600090565b602154811015611ebe57602160005260206000200190600090565b601f54811015611ebe57601f60005260206000200190600090565b8054821015611ebe5760005260206000200190600090565b906020808351928381520192019060005b818110611fdf5750505090565b8251845260209384019390920191600101611fd2565b600435906001600160a01b038216820361200b57565b600080fd5b602435906001600160a01b038216820361200b57565b604081019081106001600160401b0382111761204157604052565b634e487b7160e01b600052604160045260246000fd5b601f909101601f19168101906001600160401b0382119082101761204157604052565b6001600160401b03811161204157601f01601f191660200190565b81601f8201121561200b578035906120ac8261207a565b926120ba6040519485612057565b8284526020838301011161200b57816000926020809301838601378301015290565b6001600160401b0381116120415760051b60200190565b9080601f8301121561200b5781359061210b826120dc565b926121196040519485612057565b82845260208085019360051b82010191821161200b57602001915b8183106121415750505090565b82356001600160a01b038116810361200b57815260209283019201612134565b9080601f8301121561200b578135612178816120dc565b926121866040519485612057565b81845260208085019260051b82010192831161200b57602001905b8282106121ae5750505090565b81358152602091820191016121a1565b9080601f8301121561200b5781356121d5816120dc565b926121e36040519485612057565b81845260208085019260051b8201019183831161200b5760208201905b83821061220f57505050505090565b81356001600160401b03811161200b5760209161223187848094880101612161565b815201910190612200565b9080601f8301121561200b57813590612254826120dc565b926122626040519485612057565b82845260208085019360051b82010191821161200b57602001915b81831061228a5750505090565b8235801515810361200b5781526020928301920161227d565b9080601f8301121561200b5781356122ba816120dc565b926122c86040519485612057565b81845260208085019260051b8201019183831161200b5760208201905b8382106122f457505050505090565b81356001600160401b03811161200b57602091612316878480948801016120f3565b8152019101906122e5565b90608060031983011261200b576004356001600160401b03811161200b578261234c916004016120f3565b916024356001600160401b03811161200b578161236b916004016121be565b916044356001600160401b03811161200b578261238a916004016122a3565b91606435906001600160401b03821161200b576123a99160040161223c565b90565b919082039182116123b957565b634e487b7160e01b600052601160045260246000fd5b8051821015611ebe5760209160051b010190565b919082018092116123b957565b9015612414576123ff90611f3d565b905460039190911b1c6001600160a01b031690565b6124246123ff91600a54906123e3565b611f3d565b1561243057565b60405162461bcd60e51b815260206004820152602860248201527f4f6e6c79207374616b65686f6c646572732063616e2063616c6c207468697320604482015267333ab731ba34b7b760c11b6064820152608490fd5b1561248d57565b60405162461bcd60e51b815260206004820152601660248201527510da185b1b195b99d9481dd85cc8199a5b9a5cda195960521b6044820152606490fd5b156124d257565b60405162461bcd60e51b815260206004820152601d60248201527f4368616c6c656e676520686173206e6f742073746172746564207965740000006044820152606490fd5b9081602091031261200b5751801515810361200b5790565b818102929181159184041417156123b957565b811561254c570490565b634e487b7160e01b600052601260045260246000fd5b6001600160a01b039091168152602081019190915260400190565b3d156125a8573d9061258e8261207a565b9161259c6040519384612057565b82523d6000602084013e565b606090565b60009291836125d86125e68295604051928391602083019663a9059cbb60e01b885260248401612562565b03601f198101835282612057565b51925af16125f261257d565b81612645575b501561260057565b60405162461bcd60e51b815260206004820152601f60248201527f5472616e7366657248656c7065723a205452414e534645525f4641494c4544006044820152606490fd5b805180159250821561265a575b5050386125f8565b61266d9250602080918301019101612517565b3880612652565b6001600160a01b039182168152911660208201526040810191909152606081019190915260800190565b9193926000935b8351851015612860576126b885876123cf565b51156127275760005b6126cb86856123cf565b51518110156127125760019061270c6001600160a01b036126ec89896123cf565b511685612703846126fd8c8b6123cf565b516123cf565b51913090613695565b016126c1565b5094909192936001905b0193929190946126a5565b60009591929394955b61273a87866123cf565b5151811015612856576127889060206001600160a01b0361275b8a8a6123cf565b511661276b836126fd8c8b6123cf565b51906040518080968194627eeac760e11b83523060048401612562565b03915afa801561284a57858989899560009461280d575b509483926127fe866126fd8560019a6127e66127c3856126fd6128079d9b8b6123cf565b516127d86040519b8c928a3060208601612674565b03601f1981018b528a612057565b6127f6828d8060a01b03926123cf565b5116956123cf565b51913090613557565b01612730565b9495505050506020823d8211612842575b8161282b60209383612057565b81010312610255575051859190858989600161279f565b3d915061281e565b6040513d6000823e3d90fd5b509460019061271c565b945050505050565b909391926128746129cf565b600554600f5461288c916001600160a01b03166132a5565b600554600f54906001600160a01b031660008051602061379b833981519152600080a3600a54935b60065485101561299d576129086128ca86611f3d565b905460039190911b1c6001600160a01b03166128e587611f3d565b60018060a01b0391549060031b1c16600052601c602052604060002054906132a5565b60005b6001548110156129915780612924610ed3600193611f58565b61292f575b0161290b565b61298c61293b82611f58565b848060a01b0391549060031b1c1661295289611f3d565b858060a01b0391549060031b1c1661296984611f58565b868060a01b0391549060031b1c1660005260208052610f508a6040600020611fa9565b612929565b506001909401936128b4565b916129ac9450949092946133f5565b600060008051602061377b8339815191528180a2600160ff19601a541617601a55565b60265460009080151580613291575b612d85575b7fcf64c980a80b2cf6b9a2739bb7f0e656fa972de61b3115c3c671bf7f06e6b13f8280a24780612c76575b5047602355805b600154811015612c725760246020612a2c83611f58565b90546040516370a0823160e01b81523060048201529384929091839160031b1c6001600160a01b03165afa908115612c67578391612c34575b50602154600160401b811015612c205790610703826001612a8b94016021556021611fa9565b612a9761067482611f58565b612aa4575b600101612a15565b91815b601f54811015612bb857612aba81611f8e565b90549060031b1c60246020612ace87611f58565b90546040516370a0823160e01b81523060048201529384929091839160031b1c6001600160a01b03165afa908115612bad578591612b79575b50612b149060649261252f565b04612b1e85611f58565b905460039190911b1c6001600160a01b031684526020805260408420805490600160401b821015612b655791610703826001959486612b5f95018155611fa9565b01612aa7565b634e487b7160e01b86526041600452602486fd5b905060203d8111612ba6575b612b8f8183612057565b602082600092810103126102555750516064612b07565b503d612b85565b6040513d87823e3d90fd5b50916001906064612be0612bcb83611f73565b905460245460a81c60ff169160031b1c61252f565b0480612bef575b509050612a9c565b612c1a90612bfc83611f58565b858060a01b0391549060031b1c16848060a01b0360055416906125ad565b38612be7565b634e487b7160e01b84526041600452602484fd5b905060203d8111612c60575b612c4a8183612057565b6020826000928101031261025557505138612a65565b503d612c40565b6040513d85823e3d90fd5b5050565b91906064612ca060ff60245483612c92838360a01c168961252f565b04600e5560a81c168561252f565b04600f558060165580601755805b600654811015612d1257806064612cca86610539600195611f8e565b04612cd482611f3d565b848060a01b0391549060031b1c168452601b6020526040842055612d096064612d008761053985611f8e565b046016546123e3565b60165501612cae565b50600a545b600654811015612d7b57806064612d3386610539600195611f8e565b04612d3d82611f3d565b848060a01b0391549060031b1c168452601c6020526040842055612d726064612d698761053985611f8e565b046017546123e3565b60175501612d17565b5090915038612a0e565b60245482906001600160a01b03168061328c57506000805160206137db8339815191525b602554604051631a4ca37b60e21b81526001600160a01b039283166004820181905260001960248301523060448301529093909260209285926064928492165af1918215610dc0578492613258575b50600c54808311801561325157612e0f82856123ac565b905b8694829383151593848095613246575b613221575b506024546001600160a01b03166130d557505050909150600c546000805160206137db8339815191523b156115db5760405190632e1a7d4d60e01b825260048201528581602481836000805160206137db8339815191525af180156130ca576130b6575b508480808060018060a01b0360045416600c54905af1612ea861257d565b501561307157612fa3575b5080612ed6575b505b6026829055602780546001600160a01b03191690556129e3565b6000805160206137db8339815191523b156115e757604051632e1a7d4d60e01b8152600481018290528381602481836000805160206137db8339815191525af18015610dc057908491612f8e575b508080809360018060a01b03600554165af1612f3e61257d565b5015612f4a5738612eba565b606460405162461bcd60e51b815260206004820152602060248201527f53797374656d20666565204d41544943207472616e73666572206661696c65646044820152fd5b81612f9891612057565b6115e7578238612f24565b6000805160206137db8339815191523b156115e357604051632e1a7d4d60e01b8152600481018290528481602481836000805160206137db8339815191525af18015612bad5790859161305c575b508080809360018060a01b03600454165af161300b61257d565b50156130175738612eb3565b60405162461bcd60e51b815260206004820152601d60248201527f52657761726473204d41544943207472616e73666572206661696c65640000006044820152606490fd5b8161306691612057565b6115e3578338612ff1565b60405162461bcd60e51b815260206004820152601f60248201527f5072696e636970616c204d41544943207472616e73666572206661696c6564006044820152606490fd5b856130c391969296612057565b9338612e8a565b6040513d88823e3d90fd5b60045461310e936020936001600160a01b0390921692906132195750905b60405163a9059cbb60e01b8152938492839260048401612562565b03818a885af1801561115c576131fc575b5061319c575b5081613133575b5050612ebc565b60055460405163a9059cbb60e01b8152926020928492909183918891839161316891906001600160a01b031660048401612562565b03925af18015612c675761317d575b8061312c565b6131959060203d602011610db957610daa8183612057565b5038613177565b6004805460405163a9059cbb60e01b815292602092849283926131cc9290916001600160a01b0316908401612562565b038188865af18015612bad5715613125576131f59060203d602011610db957610daa8183612057565b5038613125565b6132149060203d602011610db957610daa8183612057565b61311f565b9050906130f3565b9650935061323f6127106132376028548961252f565b0480976123ac565b9338612e26565b506028541515612e21565b8590612e11565b9091506020813d602011613284575b8161327460209383612057565b810103126115e357519038612df8565b3d9150613267565b612da9565b506027546001600160a01b031615156129de565b814710156132b1575050565b814710613344576000918291829182916001600160a01b03165af16132d461257d565b50156132dc57565b60405162461bcd60e51b815260206004820152603a60248201527f416464726573733a20756e61626c6520746f2073656e642076616c75652c20726044820152791958da5c1a595b9d081b585e481a185d99481c995d995c9d195960321b6064820152608490fd5b60405162461bcd60e51b815260206004820152601d60248201527f416464726573733a20696e73756666696369656e742062616c616e63650000006044820152606490fd5b6040516370a0823160e01b81526001600160a01b0392831660048201529160209183916024918391165afa90811561284a576000916133c6575090565b90506020813d6020116133ed575b816133e160209383612057565b8101031261200b575190565b3d91506133d4565b91906000935b83518510156135505761340e85826123cf565b511561347d5760005b61342186846123cf565b515181101561346e576001906134686001600160a01b0361344289896123cf565b5116838060a01b03613458846126fd8c8b6123cf565b5116612703846126fd8c8a6123cf565b01613417565b5094936001905b0193946133fb565b949361348981836123cf565b515160011c60005b8181106134a2575050600190613475565b60019061354a6134c66134b586886123cf565b516134c086856123e3565b906123cf565b51838060a01b036134db846126fd898c6123cf565b5116906135136134ef856126fd8a8c6123cf565b5192613505836040519586933060208601612674565b03601f198101845283612057565b848060a01b03613523888c6123cf565b51168961353a866126fd8b8a8060a01b03946123cf565b51166127fe866126fd8b8d6123cf565b01613491565b5050505050565b604051637921219560e11b602082019081526001600160a01b0393841660248301529290931660448401526064830193909352608482019390935260a060a4820152835160c48201819052919390919060005b82811061367f575050916000826135e160e482878583819b999a829b010152601f801991011681010301601f198101835282612057565b51925af16135ed61257d565b81613650575b50156135fb57565b60405162461bcd60e51b815260206004820152602760248201527f5472616e7366657248656c7065723a205452414e534645525f4e46543131353560448201526617d1905253115160ca1b6064820152608490fd5b8051801592508215613665575b5050386135f3565b6136789250602080918301019101612517565b388061365d565b80602080928401015160e48287010152016135aa565b6040516323b872dd60e01b602082019081526001600160a01b0393841660248301529390921660448301526064808301949094529281526000928392909183906136e0608482612057565b51925af16136ec61257d565b8161374b575b50156136fa57565b60405162461bcd60e51b8152602060048201526024808201527f5472616e7366657248656c7065723a205452414e534645525f46524f4d5f46416044820152631253115160e21b6064820152608490fd5b8051801592508215613760575b5050386136f2565b6137739250602080918301019101612517565b388061375856fee3e60fbb15d08e7fd26c6b9c1b23f426e6ea1440e9cef171604a15cf86b8357c97c35397cb6acebd9df368c206404479fc4c80dd6034d1b28943aaf582631870944998273e477b495144fb8794c914197f3ccb46be2900f4698fd0ef743c96950000000000000000000000000d500b1d8e8ef31e21c99d1db9a6444d3adf1270a2646970667358221220564fb726857bd824552dff6310fdf123c0b2bebc5392027a95e76dc92ebbb45564736f6c634300081c003372a79835b874421caed7ca91287f0dcb5b741a8d5d43f4c5fe40e2a55c2431150000000000000000000000000d500b1d8e8ef31e21c99d1db9a6444d3adf1270",
  "linkReferences": {},
  "deployedLinkReferences": {}
}